S011000056344C6962546573742E73726563D2
S11300000C941C0D0C94520D0C94520D0C94520D26
S11300100C94520D0C94520D0C94520D0C94520DE0
S11300200C94520D0C94520D0C94520D0C94520DD0
S11300300C94520D0C94520D0C946C0F0C94520DA4
S11300400C94520D0C94520D0C94520D0C94520DB0
S11300500C944D230C94520D0C94520D0C94520D8F
S11300600C94520D0C94520D0C94520D0C94520D90
S11300700C94520D0C94520D0C94520D0C94520D80
S11300800C94520D0C94520D0C94520D0C94520D70
S11300900C94520D0C94520D0C94520D0C94520D60
S11300A00C94520D0C94520D0C94520D0C94520D50
S11300B00C94520D0C94520D0C94520D0C94520D40
S11300C00C94520D0C94520D0C94520D0C94520D30
S11300D00C94520D0C94520D0C94520D0C94520D20
S11300E00C94520D0C94520D0C947C110C94520DE2
S11300F00C94520D0C94520D0C94520D0C94520D00
S11301000C94520D0C94520D0C94520D0C94520DEF
S11301100C94520D0C94520D0C94520D0C94520DDF
S11301200C94520D0C94520D0C94520D0C94520DCF
S11301300C94520D0C94520D0C94520D0C94520DBF
S11301400C94520D0C94520D0C94520D0C94520DAF
S11301500C94520D0C94520D0C94520D0C94520D9F
S11301600C9447110C94520D0C94520D0C94520D96
S11301700C94520D0C94520D0C94520D0C94520D7F
S11301800C94520D0C94520D0C94520D0C94520D6F
S11301900C94520D0C94520D0C94520D0C94520D5F
S11301A00C94520D0C94520D0C94520D0C94520D4F
S11301B00C94520D0C94520D0C94520D0C94520D3F
S11301C00C94520D0C94520D0C94520D0C94520D2F
S11301D00C94520D0C94520D0C94520D0C94520D1F
S11301E00C94520D0C94520D0C94520D0C94520D0F
S11301F00C94520D0C94520D0C94520D0C94CE216F
S11302000C945D220C941B130C9473220C94AF1A5F
S11302100C9431220C942C130C94AC220C94681B77
S11302200C94580D0C94540D0C94DC1D0C948022E9
S11302300C941C1C0C94F6220C94D1220C94811F57
S11302400C9472240C94570D0C948D220C94F51577
S11302500C94CB1B0C9493100C94321F0C943012FE
S11302600C94AA100C9497220C94291C0C946413DB
S11302700C9434120C9468130C94870D0C94DA14B7
S11302800C94A91C0C94B81B0C94B1110C949F10E1
S11302900C94F8110C94BC10CD000302050506045F
S11302A0052017EEFB08FE09FF017E02F905182060
S11302B0060080380121070185387109220863840A
S11302C04D915802230FE58478534A9241A90C4A70
S11302D0294900241F783A7791F3FFFFFFAF39CB08
S11302E04E4EEAD4A44E4D72969DA54E4DEAE49D21
S11302F02502250DE78499132A516BA9454C002644
S11303000F068589A5456D5A926849162D01270661
S113031061843D31280C43855795244AD4246501D2
S1130320290B43855791455217A5042A0B85847AD6
S1130330150D529624002B0BA5847915468314467B
S1130340002C086280369328002D0623803B312E32
S11303500621843A112F0C04815857CAA22CCA32A0
S113036000300B058578B364BE250B003108038586
S11303706835447D320B058578B36461AD6D103307
S11303800D058578B36461A4865AB200340F0685DE
S113039088196A4954C992614C1300350E05857851
S11303A033245938A4A1962C00360D05857825658B
S11303B0E19064B66401370D0585783188599885D4
S11303C0599801380D058578B3645AB264B664014E
S11303D0390D058578B364B66408B348023A0782D8
S11303E08038210A3B09A2844793250A003C09A5C9
S11303F084791929AA1A3D0964846A318443003E28
S113040009A58479915AA4103F0E258577B36461B8
S11304102669610E450040174A85C637A461162730
S113042099A92495A44A1429618E0D1900410F0736
S1130430817817A7499864A541CA9234420E05856C
S1130440783124993628996D5000430C06858835F7
S1130450656A73162D00440D068588314459127A55
S11304604B8608450C058568710C87242C0E0246C2
S11304700B058568712C0E495804470F068588338F
S113048024A15A1A4231191200480B068588111A00
S11304908741740C490701853871104A0A0585782B
S11304A0D9A3962C004B0E05857891494949D392DE
S11304B0A892054C0905856811F671104D10088540
S11304C0A8118F43B844891225924F014E0F068517
S11304D088116E43A4981269C8C6004F0D0685881A
S11304E0A54549E898449904500D0685883128A10A
S11304F07158D22A00510C2685873324A18FC990C4
S11305000A520D0585783124996D50325B00530DE4
S11305100685883324A1EC980C0900540A078178D5
S113052071C8E2BE01550B06858811FA3119120013
S11305305610078178912659944559254CD2380391
S113054057140A85C89169492495A4925489924CF8
S11305501225B104580E058578912D4A2DCC92446C
S1130560D902590D05857891694929C9C226005ACD
S11305700B068578712C8AD570185B09628536B1B3
S1130580F417015C0C048158918559988559005DD4
S113059009628136A1F497015E0965847D9525B5CC
S11305A0005F072580573108610CC58478B3268322
S11305B0A6254300620D05857811168724B30D0A1C
S11305C000630BC58468B364622D5900640B058510
S11305D078D93268B66408650CC58478B364C310EE
S11305E0A64300660B248148A564D1947502670D67
S11305F00585763368B664082B0B00680B0585788F
S113060011168724730B6908018538910C036A0954
S11306104281369325BD0C6B0E05856811665252D6
S1130620D292A892056C0701853871106D0FC984A8
S1130630B831244B966999966999566E0AC584789F
S1130640312499B7006F0AC58478B3646EC9027007
S11306500D0585763124996D50C22200710B0585F4
S1130660763368B664081B720AC38448912C51130C
S113067000730CC48468A3444998448902740A032F
S1130680855813254BD424750AC5847891794B86F3
S113069000760DC580589125A5244AB23002770F03
S11306A0C78488114552A42C4AB7284B00780CC53E
S11306B080689125B5304B6A01790F0581569125E3
S11306C051524A322D8C34007A0AC5846831688DBF
S11306D0D9207B0B63855695442D59D4167C07414C
S11306E08536F1107D0C63855691456D49D4120110
S11306F07E0846848A235900A00600803801A60992
S113070021853731244300A9142885A83564611252
S113071059A244099528592C61A801AB09A384580E
S113072053B15400AC0845806A318801AE14088581
S1130730A8356443D294289312254A9414B3210211
S1130740B00662844D71B10CE5846815468314E6E5
S1130750C020B20983803B3125C900B30983844B8F
S1130760B1644300B50B05857691791B863004B9D5
S11307700782844BA134BB09A3845853B15400BCF1
S113078011C88499A195C2288992444B86244C00AF
S1130790BD0DC884A9A19586A44F52240FBE12E8AA
S11307A08499B1035116A5C941C99221CA1200D72F
S11307B00BA48469110D91924C01F70BC58479A5A2
S11307C083830E28000000000C06D40523FBAE042E
S11307D0D3FFFF060C076284496306150843800EA5
S11307E03308061B08A284496312061F0D2581578E
S11307F0B364A2B10E450006210A838458330D1157
S11308000006220A0381383146BD000623094281CD
S11308103863E907062410648565A384B21249C9C4
S11308201625120006250A628135D36F8A00062632
S11308301127818523474AD41665D9906ED20406C0
S11308402708018538711006280DC8809611CB6BD6
S113085032EC700606290DE48048539594484A14F6
S113086000062A0DA880989744B1BC26C302062B23
S11308700EC880981927512CAFC9B000062C132735
S11308808174B303E290886A94E5400E0C09000673
S11308902D12278174B303E290886A9C03393024B3
S11308A000062E13878174955377401C12518D7363
S11308B020078604062F0AA4845913D6860406301A
S11308C00B04855893836D4302063109C38035D5E3
S11308D0A50406320B03813513472D250006331377
S11308E0EC80C50FE650A226D64149532D07861C3D
S11308F00634174C81C50FE55892B3E550A226D6AD
S11309004149532D07861C0635170D81E58FED509F
S1130910A426992AAAC392E6409623438E0006365B
S1130920194D81E58FE58C3B14A949A68AEAB0A448
S11309303990E5C890230006371308859895033944
S11309409003C9A645E1980C13000638120885984F
S113095055CC811C48362D0AC764980006391046C8
S1130960817433A5F11069629AAA8300063A11864C
S113097081749563531A0F9126A6A93A0806400775
S1130980228028210641110981989DD3E4A418A945
S1130990831A0D130006421227818597E4A818498B
S11309A09136A49B3244000643110881880FE44029
S11309B00E6492F39A0C0B0006440D468166DB55D7
S11309C0344ED1900006450E068164A74543A42CFD
S11309D0692B0006460DE780759743AA758B860838
S11309E006470CA4804823299194280006480DE466
S11309F08465A34452B24589040649100781852BB6
S1130A0046B528CB8674932600064A134781832B68
S1130A1046B528CB867453861C4C2200064B0842EC
S1130A20800D3104064C0963800E714900064D089F
S1130A304280053104064E0722800D21064F0962CB
S1130A40840D3128000650072280052106510943F0
S1130A50800E31240106520842800D3104065307EA
S1130A6023800D3106540762800D630655076280AA
S1130A7005630656074180052106580A64800E1155
S1130A80498902065A0722800D21065B0722800D40
S1130A9021066008428449B100066109E2844911D3
S1130AA0253D06620DE5846891255132856D000669
S1130AB0630DE6888811259661495B0106640DE49F
S1130AC080492165939245C90006650CE580583339
S1130AD02535B7640106660BE5806831841DC500C1
S1130AE006670E058578A969492989C41200066834
S1130AF00E05857815665A1225352D0C06690BE40A
S1130B008058A34452B235066A0D03855891285182
S1130B101255A208066B0CC480481765511665006F
S1130B20066C09628027932800066D0D8680781371
S1130B30258B0E440900066E0C88809911CB6B320C
S1130B402C00066F10E78085294652A40DE9A60CF7
S1130B50110006700741800D2106710B2381383383
S1130B6088512F00067912E9809897233A9064916E
S1130B7094C473344C00067E0FE8809611CB6B321C
S1130B80EC68126700068613278174B303E2908829
S1130B906A3224919603430206880E258158136A0B
S1130BA03A94A6DAA00006910C43813513296AD43D
S1130BB0520206950A038133D5A5AA0006980B4371
S1130BC0814593A3514B0906A10FC980982D27C5D0
S1130BD0481DD468980006A4132981989D03494EA2
S1130BE0929362A40E6A344C0006A9110981988F6D
S1130BF0A4730E95933851A3610206AA16ED80D80A
S1130C009D633A90E548360C4A8E253A960C0705C2
S1130C1006AF132981988FC4F290E688944671A296
S1130C2046C30406B510A68165A9E660DA2A1AA7A8
S1130C3068480006BA0CC78075AD5AB768880006C4
S1130C40BE0EA78078254652259986210106C00F3D
S1130C50248148236539200D9194280006C10CA4F1
S1130C60804823299194280006C20F248148A38434
S1130C703920299194280006C30DE48048B34A4AD8
S1130C8024250A0006C60F448565550794484AB6CC
S1130C9028910006C710648565234939A04452B2DF
S1130CA045890406C90F24856693034A24255B9469
S1130CB0480006CC100781852B46B528CB86749353
S1130CC0260006CE11278185234762548BB26C48D7
S1130CD037690206D20C8984B825E7408E0C0706D2
S1130CE0D310E984B89503399243720EE4C87006B0
S1130CF0D4072184381106D50CA480482329919463
S1130D00280006F00B848468A34452A20006F1096B
S1130D10E2844911253D06F20DE58468912551329E
S1130D20856D0006F30EE784889125152519A4B86E
S1130D301506F40E068588110DA37150D222000603
S1130D40F510068168956A4A54094D49A2240006A3
S1130D50F60CE484683364E162CA0006F70E058584
S1130D6078A969492989C4120006F80E0585781501
S1130D70665A1225352D0C06F90BE48058A344520B
S1130D80B23506FF09C38035D5A5042009070080C4
S1130D901801200A0700801801200B0700800801B1
S1130DA0200C0700800801200D0700800801200E98
S1130DB00700800801200F07008008012018074160
S1130DC0843E2120190741843D21201C0963845D50
S1130DD0535102201D0A63845C91281500201E0AC9
S1130DE06384569128150020220A638458930C0AC0
S1130DF000202608278498111520320761843D318C
S1130E0020330762844D71203909A28438A39402E7
S1130E10203A0AA280381125890220440BC5805942
S1130E209915B3220020700A83803B3124CA102014
S1130E30740B84804B152943940020750983844BDB
S1130E40711A0220760A83844BA10CC91020770AF8
S1130E5083844BB144490420780A83845BB154866B
S1130E600020790B83803B312443920020800A8345
S1130E7080383124CA10208108828448A134208219
S1130E800A8380383125C90020830A838448B164E9
S1130E90430020840B84804815294394002085094D
S1130EA0838448711A0220860A838448A10CC910DD
S1130EB020870A838448B144490420880A838458DB
S1130EC0B154860020890B83803831244392002159
S1130ED0220A65847DB128A50122020D05856833A7
S1130EE0468AB4D99205220F0A2685877108FD31F6
S1130EF022110E4681767150E36A5814870122123A
S1130F000825846B310822150B03897755892A51EA
S1130F1009221A0C068178DB9848996802221E136C
S1130F20CB84B8B32D5912256128865A1245DB02A9
S1130F30222B0B648136A564FD4902224809A5844D
S1130F4069A11E0722600CA58469970C52348C0099
S1130F5022640BC580683768AA3A0822650CC580EC
S1130F6069A34A4B8E0C02FB500B23813833885102
S1130F702F00FB510B238138358451B700FB5611E8
S1130F80C9809591033A900C430E27391002FB5700
S1130F9011CA80A59103490E44C31D4E722405FB5A
S1130FA0580BE38035551A930A00FB590DC480454C
S1130FB095254398441100FB6612E9809897233ADB
S1130FC090649194C473344C00FB6710AA80A99771
S1130FD084D19803892A0D5300FB680C03813811CE
S1130FE02972142D00FB690DE48048112A3B9025D9
S1130FF04A00FB6A132981989D03494E929362A487
S11310000E6A344C00FB6B11E9809A3BE414254CC6
S11310108AD1360D8300FB6C0D2481585549972ED7
S1131020DB9000FB6D0FE58059B3235212255192DA
S11310300C02FB7A13478173B5D5816850D2384AC4
S11310406A75604800FB7B15488183356639920DCB
S113105052B803492D4A73648800FB7C11088185CA
S11310603566399223C3A083491C02FB7D10E880B6
S113107085356639920C838E257108FB890E268589
S113108069A525D98EC5696918FB8A0C2481455543
S1131090C981ACD406FB8B0C2481455589B34C6AB9
S11310A003FB8D0E44814593493A9065521B00FB26
S11310B08E174981988FE4400EE4408EE45039C97C
S11310C0011D48862101FB8F174A81A80FE5488E30
S11310D0E4480EE5589403498EE848321CFB900C12
S11310E04581589935A68D8302FB910C468168D9B8
S11310F0356E4D8601FB92174981989DA4490EE4F3
S1131100408EE45039C9011D48862101FB93174ADA
S113111081A89DC4498EE4480EE55839CA81240744
S1131120A2E100FB940D45815895B415D3C6410145
S1131130FB950E468168954449588D5B9361FB9FEE
S11311400FC880851BA549BA265A366400FBA40F34
S1131150248148236539200D91942800FBA510258E
S1131160856823A59992294A2919D200FBA70A6503
S1131170846823255124FBA80CE48045571BB2281E
S11311805300FBA90CA58055934991262600FBAB7F
S1131190110685652526514B342C51A4641200FB9D
S11311A0AC0EA78078254652A569181200FBAD1035
S11311B0A88078A5465A944449940C8300FBAE0C4D
S11311C08984B825E7408E0C07FBAF0A678456B3C1
S11311D0C5C310FBB010E984B89503399243720E6D
S11311E0E4C870FBB10DC7845623E640BCC5C310E8
S11311F0FBB20722800B21FBB30722800621FBB43C
S11312000824800B3104FBB5082380079104FBB646
S11312100843800AD300FBB9084280061105FBD7B6
S113122010648565234939A04452B2458904FBD82A
S113123010648555154939A04452B2458904FBD937
S11312400F448565550794484AB6289100FBDA0F88
S1131250448555550794484AB6289100FBE30F246A
S1131260855693034A24255B944800FBFC10E880D0
S113127085396652982DB19C0C0B00FBFD11E97C5D
S113128084B96649146A539CC4D13001FBFE0AC375
S11312908036551A9300FBFF0CA48046952543988D
S11312A02400FD3E0C638145954449D4AD14FD3FB3
S11312B00D638545914559D4A51401FDFC1F4E814C
S11312C0E6BB83490E263998E46092256292256232
S11312D09225623469AA34244308FE800A83845820
S11312E0330D1100FE810C258158992C71D81300FF
S11312F0FE820C258578992C71D81300FE8309424F
S1131300813863E907FE840A428538B1F45300FE4C
S11313108510648565A384B21249C916251200FE9E
S11313208610648555A384B21249C916251200FE9D
S1131330870A628135D36F8A00FE88090285389155
S1131340F429FE891227818523474AD41665999288
S1131350AAC9A000FE8A1328818515E7800EE740FC
S113136036A8491A0D1200FE8B0C038138A1447271
S1131370142D00FE8C0DE48048A3643A92254300AA
S1131380FE8D080185387110FE8E0902853891F4AE
S113139029FE8F0FA9809691033A900C434E0801C1
S11313A0FE900FAA80A69103490E44C39D9002FEAD
S11313B0910AC38036555A1300FE920BA4804695B9
S11313C025431A01FE930DE48048539594484A142A
S11313D000FE940EE58058530716A5940C6900FE90
S11313E09510A9809897E4680EE840320C0900FE35
S11313F0960FAA80A897E4841C4872201A0EFE97C0
S11314000CC480585307B26C4800FE980CC4804842
S113141091E440561902FE9911C980989903498EA6
S1131420E6800E24C39000FE9A10CA80A899237502
S1131430420E2439100D07FE9B0BE38038D31A4566
S11314400B00FE9C0DE4804813253990558600FE60
S11314509D13478173B5D5816850D238CA7220076D
S11314608604FE9E15488183356639920D52B80371
S113147051982339324400FE9F10E880863566393E
S11314809223C3A0A32100FEA00FC880863566392D
S1131490920C830E8600FEA112478183B5D5816824
S11314A050D2B80EE4C09000FEA21548859335666C
S11314B039920D52B80339902339324400FEA30EF9
S11314C0A880883566399223C3A000FEA40D8880C5
S11314D088356639920C8300FEA51487817397A31F
S11314E05B1D8806258DEB400E0C0900FEA61688B0
S11314F081839713C62C47B2410A77200772244789
S11315008608FEA710E880889713C62C47726418D3
S11315101400FEA80EC880889713C62C4792611049
S1131520FEA90AA4845813D68604FEAA0AA58468D0
S113153093169341FEAB0CE484589303616D480009
S1131540FEAC0CE58468934369311904FEAD09C30C
S11315508455D5A504FEAE0BC480459565521B0089
S1131560FEAF0B03855595462D2500FEB00C048176
S11315704595035926B501FEB113CC80C50F2489C6
S11315809C24F290C4619C0E2B00FEB212CD80D537
S11315900F24CD49F330C4691C0F3300FEB30D682A
S11315A080881355A268181400FEB40C6A80A8D56C
S11315B01655864300FEB5174C81C50FE558927346
S11315C04C123949E42189C3381D5600FEB6164D24
S11315D081D50FE56092F3903427CDC310A7713CF9
S11315E0CC00FEB710E8808819273935AA44D130D9
S11315F02800FEB80FCA80A89B23754A548B2AC3BF
S113160021FEB9190E81E50FEA60A446999A64494E
S11316103A4C690EA43932E80800FEBA180E81E586
S11316200FEA60A446999A64493A5C7320CD9141CB
S11316304700FEBB11AA80A80FE840D416255932F2
S11316400C1200FEBC0EA980982D47499425B56460
S113165038FEBD1A4E81E50FE6CC3A18A951A626EC
S113166059920E539A03698E0C3A02FEBE1A4E81A9
S1131670E50FE6CC3A18A951A62659920ED71C4874
S11316807364D01100FEBF12EA80A80FE4541D88D1
S1131690DAA2244B864102FEC011EA80A89D53754C
S11316A0206A8B922C1A0E01FEC1130881889503BF
S11316B0399003C9A645619425C304FEC21109816A
S11316C0989523399223C9A815B3D270FEC3130881
S11316D081889503399003C9A645619425C304FE06
S11316E0C4110981989523399223C9A815B3D270DE
S11316F0FEC5130881889503519803C9A6456194D2
S113170025C304FEC6110981989523519A23C9A8BB
S113171015B3D270FEC7130881889503519803C985
S1131720A645619425C304FEC81308818895035116
S11317309803C9A645619425C320FEC90F26817468
S113174035A5F114A671162D00FECA114681643523
S11317506551128653A6C659B400FECB0A8580682B
S11317602555B241FECC0CA78078B5B5A4D9300478
S1131770FECD106681749763531A4F611A67D102C4
S1131780FECE1386816497635316256138656A9C7F
S1131790450B00FECF0CC58068954352251B04FE03
S11317A0D00EE7807897A35B4B9A0D4300FED112CD
S11317B00981989DD3E4488CD4210792614800FEA6
S11317C0D20FC980989DD394302926D13008FED3F6
S11317D00E058168954352258AC64101FED40DC584
S11317E080589543521225C920FED512278185972A
S11317F0E4A818659136A46A322800FED613288519
S11318009597E404350AA3241BD4248D0609FED736
S11318100F0581585347A44A940CE1A000FED80D4B
S1131820C580585347A4244A9241FED9110881889F
S11318300FE4400E6492B39C0C4300FEDA14098159
S1131840980FE4488E84521249499CC4D13008FE52
S1131850DB0C0581582765615A1D06FEDC0C0681E8
S1131860681BB6CAF13004FEDD0D668165DBABE8AA
S1131870980C0900FEDE106781751BF71226E198AB
S113188084D11001FEDF09028128D31705FEE00987
S113189003813813F565FEE10D068164A7452D43E8
S11318A092B602FEE20D068164A745A561495B017B
S11318B0FEE30B868068A745A56101FEE40D8780E1
S11318C078274659940C4300FEE50DE7807597632D
S11318D0A96B322800FEE60FE8808597A395744D26
S11318E0D2689000FEE70AC380381347D102FEE8AD
S11318F00BC480489323596508FEE90B848048A3F0
S11319004452A200FEEA0BA580582355A26814FE97
S1131910EB0EA78078254652A569181200FEEC103C
S1131920E68065152659120D4B2D093300FEED0D89
S1131930E48465A34452B2458904FEEE0DE4845563
S1131940A34452B2458904FEEF100781852B46B5A6
S113195028CB86544D0605FEF00EA880869103E937
S11319609AA4D1B000FEF1134781832B46B528CB4E
S113197086544D061D4B2200FEF212E8808491032A
S1131980D9204669320C39986400FEF30AC38036C4
S1131990551AB224FEF40CC480469555863049008D
S11319A0FEF510268167312469922559D4A72904AC
S11319B0FEF612078178312471944559298BB2447B
S11319C09A02FEF70F05856891D9922851A26D18E5
S11319D002FEF81347817893C65A9445599495B2F8
S11319E0284BA429FEF912658565A96949944449DF
S11319F0A22CA1166A00FEFA1266857499644996AF
S1131A0064512FCA148B2200FEFB0F058568A9D9E7
S1131A1092288992649000FEFC0F068578996449A7
S1131A209664512FCA14FEFF0700800801000000CD
S1131A30B1111B13DA14722411241FBECFEFCDBFD2
S1131A40DFE3DEBF00E00CBF18BE19BE1ABE1BBE2A
S1131A5019E2A0E0B0E2EAE9F3E500E00BBF02C05E
S1131A6007900D92AA35B107D9F71BBE24E3AAE566
S1131A70B9E201C01D92A138B207E1F71DE0CCE143
S1131A80DDE000E006C021970109802FFE010E94DD
S1131A90E224C831D10780E00807A9F70E9489230E
S1131AA00C94CB290C94000080E090E008950895F4
S1131AB0CF92DF92EF92FF920F931F93CF93DF9316
S1131AC041155105C1F06A018C01E62EF72EC0E0E4
S1131AD0D0E0D7016D917D01D801ED91FC91019089
S1131AE0F081E02DC8011995892B39F02196CC1687
S1131AF0DD0679F702C0C0E0D0E0CE01DF91CF91DE
S1131B001F910F91FF90EF90DF90CF900895FB010C
S1131B10A485B585ED91FC9111970190F081E02D9C
S1131B20682FCD01199580E090E00895DB011496AB
S1131B304D915C9115976D917C91DC01ED91FC9137
S1131B400280F381E02D199508956115710581F0E6
S1131B50FB0101900020E9F73197AF01461B570BB9
S1131B60DC01ED91FC910280F381E02D199508953B
S1131B7080E090E00895CF93DF93CDB7DEB72E9742
S1131B80CDBFDEBF87E89DE089879A871B861C86C8
S1131B9082E08C838C899D898D879E87AE01485E07
S1131BA05F4F6E897F89CE0101960E9417272E967A
S1131BB0CDBFDEBFDF91CF910895FC01808191817B
S1131BC00E9492250895CF93DF93EC018881998137
S1131BD0009711F00E949225188219821C821D829E
S1131BE01A821B82DF91CF9108950F931F93CF9395
S1131BF0DF93EC018B016F5F7F4F888199810E9495
S1131C001B26009731F0888399830A831B8381E024
S1131C1001C080E0DF91CF911F910F910895CF9380
S1131C20DF93FC0120813181232B29F02281338130
S1131C302617370770F4EC010E94F50D882361F034
S1131C408C819D81892B39F4E881F981108281E0AE
S1131C5003C081E001C081E0DF91CF910895EF924C
S1131C60FF920F931F93CF93DF93EC017B018A01C3
S1131C70BA010E940F0E811104C0CE010E94E30D2F
S1131C8007C00C831D83B701888199810E941027A6
S1131C90CE01DF91CF911F910F91FF90EF900895A6
S1131CA0FC01108211821282138214821582611542
S1131CB0710551F0FB0101900020E9F73197AF0164
S1131CC0461B570B0E942F0E0895EF92FF920F931D
S1131CD01F93CF93DF9361157105D9F04115510519
S1131CE0D1F08B01EC01EC80FD80E40EF51EB70110
S1131CF00E940F0E882381F0288139818C819D8177
S1131D00B801820F931F0E941027EC82FD8281E0AC
S1131D1003C080E001C081E0DF91CF911F910F915A
S1131D20FF90EF9008956115710559F0FB01019042
S1131D300020E9F73197AF01461B570B0E94650E4F
S1131D40089580E008959FB7F894E82FF0E0EE0F2F
S1131D50FF1FEA5FFF4DA081B1811C928CE01996B0
S1131D608C93A081B18181E08C93A081B181119683
S1131D701C92A081B18113961C92A081B18114960A
S1131D801C92A081B18183E016968C93A081B181CD
S1131D9017961C92A081B1818C918D7F8C930190B8
S1131DA0F081E02D80914C08848710A211A22FE1CC
S1131DB03EE426A337A310A611A612A613A69FBF1E
S1131DC0789408959FB7F894E0E5F0E0808184600A
S1131DD08083818182FFFDCFE0E5F0E08081826035
S1131DE08083A0E4B0E011968C911197807828ED5F
S1131DF024BF11968C938681887F8683E0E6F0E089
S1131E00808181608083E0E5F0E0818181FFFDCF06
S1131E10E0E4F0E08081887F816028ED24BF808346
S1131E20E0E5F0E08081867E8083E0EBF0E0848171
S1131E30807F84839FBF08952FB7F894E0E0F8E093
S1131E4010828CE0818781E0808311821382148266
S1131E5083E086831782A0E9B8E08C918E7F8C930F
S1131E60A0E9B0E019968C9119978E7F98ED94BFF4
S1131E7019968C93A0E8B8E01C9213968C91139752
S1131E80887E13968C93139712961C92129714962D
S1131E908C91149714969C9114978470892B1496A2
S1131EA08C938485848710A211A28FEF9CE786A36C
S1131EB097A310A611A612A613A614A615A616A6D5
S1131EC017A62FBF089560915A2970915B298091BC
S1131ED05C2990915D2908951F920F920FB60F927D
S1131EE0112408B60F9218BE09B60F9219BE0BB68C
S1131EF00F921BBE2F938F939F93AF93BF93EF9338
S1131F00FF932FB7F89480915A2990915B29A0915F
S1131F105C29B0915D290196A11DB11D80935A29B8
S1131F2090935B29A0935C29B0935D29E0E0F8E0ED
S1131F30848584872FBFFF91EF91BF91AF919F91CB
S1131F408F912F910F900BBE0F9009BE0F9008BE7A
S1131F500F900FBE0F901F901895CF93DF936111D0
S1131F6025C090E0FC01EE0FFF1FE05FFF4DA08154
S1131F70B18111962C911197EC01CC52DF4D38812F
S1131F8081E090E0032E02C0880F991F0A94E2F7C3
S1131F908095822311968C930190F081E02D7096A8
S1131FA0E30FF11D80818361808372C0623029F563
S1131FB090E0FC01EE0FFF1FE05FFF4DA081B181B7
S1131FC011962C911197EC01CC52DF4D388181E0B0
S1131FD090E0032E02C0880F991F0A94E2F78095BF
S1131FE0822311968C930190F081E02D7096E30F7B
S1131FF0F11D80818B6180834BC0613021F590E0BD
S1132000FC01EE0FFF1FE05FFF4DA081B18111962F
S11320103C911197EC01CC52DF4D288181E090E096
S1132020022E02C0880F991F0A94E2F7832B11969F
S11320308C930190F081E02D7096E20FF11D808168
S11320408361808325C0633019F590E0FC01EE0FB5
S1132050FF1FE05FFF4DA081B18111963C91119764
S1132060EC01CC52DF4D288181E090E0022E02C0C9
S1132070880F991F0A94E2F7832B11968C93019091
S1132080F081E02D7096E20FF11D80818B618083D9
S1132090DF91CF910895611117C090E0FC01EE0F1C
S11320A0FF1FE05FFF4D0190F081E02DDC01AC5299
S11320B0BF4D21E030E0C9010C9002C0880F991F88
S11320C00A94E2F78683089590E0FC01EE0FFF1F67
S11320D0E05FFF4D0190F081E02DDC01AC52BF4D7B
S11320E021E030E0C9010C9002C0880F991F0A94C6
S11320F0E2F785830895282F30E0F901EE0FFF1FE2
S1132100E05FFF4D0190F081E02D808590E0F901C2
S1132110EC52FF4D008002C0959587950A94E2F732
S11321208170992708958F5E9B4FDC01ED91FC919E
S1132130818185FFFDCF608381E090E00895FC01FB
S11321402585368587859089A901481B590BCA01C5
S113215093700895FC012585368587859089281715
S1132160390739F087859089E80FF91F818990E054
S113217008958FEF9FEF0895FC01258536858785A7
S113218090892817390779F0A785B089AE0FBF1F4A
S113219051968C91278530892F5F3F4F3370278765
S11321A0308B90E008958FEF9FEF0895CF93DF93E6
S11321B0DC01E0EAF0E092819873966088ED84BFD8
S11321C092831182FD01EF5EFB4F80819181803A01
S11321D0994029F4E0E6F6E088E085838183FD01F7
S11321E0EF5EFB4F80819181803A9A4029F4E0E8C8
S11321F0F6E088E085838183FD01EF5EFB4FC081BB
S1132200D18183E08D83C081D1819B81907C906357
S11322109B83C081D1818EE28E83C081D18188E984
S11322208F830190F081E02D9481907E9861948356
S11322301C961C927894DF91CF910895F894FC0138
S1132240EF5EFB4F0190F081E02D21812C71E1F4D0
S11322506081DC011D962D913C911E972F5F3F4FAD
S113226033701F964D915C9150972417350769F090
S11322701D96ED91FC911E97E80FF91F618B1D9639
S11322802D933C931E9701C08081789408951F92EA
S11322900F920FB60F92112408B60F9218BE09B60A
S11322A00F9219BE0BB60F921BBE2F933F934F9301
S11322B05F936F937F938F939F93AF93BF93EF93AA
S11322C0FF9381E79DE20E941E11FF91EF91BF9160
S11322D0AF919F918F917F916F915F914F913F91BA
S11322E02F910F900BBE0F9009BE0F9008BE0F9058
S11322F00FBE0F901F9018951F920F920FB60F925A
S1132300112408B60F9218BE09B60F9219BE0BB667
S11323100F921BBE2F933F934F935F936F937F93C3
S11323208F939F93AF93BF93EF93FF938EE599E2BF
S11323300E941E11FF91EF91BF91AF919F918F91D8
S11323407F916F915F914F913F912F910F900BBEB1
S11323500F9009BE0F9008BE0F900FBE0F901F90F4
S11323601895CF92DF92EF92FF92CF93DF93E1E73C
S1132370FDE2128213820F2EF8EECF2EF3E0DF2E51
S1132380E12CF12CF02DC482D582E682F782CAEFCB
S1132390D0E2C083D18380EA99E080938231909324
S11323A0833126E040E052EC61E070E0CF010E940E
S11323B0D610EEE5F9E212821382C482D582E68257
S11323C0F782C083D18380EA9AE080936F2D909343
S11323D0702D26E040E052EC61E070E0CF010E94F5
S11323E0D610DF91CF91FF90EF90DF90CF900895BA
S11323F0CF93DF93DC0151969C915197913071F406
S113240012968D919C911397EC01E881F9810190CA
S1132410F081E02D1E966C9119951FC0933071F4D4
S113242012968D919C911397EC01E881F9810280B9
S1132430F381E02D1E966C9119950FC0923069F4CA
S113244012968D919C911397EC01E881F981048097
S1132450F581E02D1E966C911995DF91CF91089529
S1132460FC016283738308958F929F92AF92BF920F
S1132470FF920F931F93CF93DF93EC0180918431EC
S1132480EE81FF81E80FF11D80810E947B10892B72
S113249009F072C0F09084310F2D10E08F85988977
S11324A00817190709F062C00E94630F8A889B8885
S11324B0AC88BD88AB01BC01481959096A097B097C
S11324C08C859D85A0E0B0E084179507A607B70723
S11324D0E0F48989811119C00F87188BEC81FD8183
S11324E0EF0DF11D80818E8781E0898BF894E8815E
S11324F0F9810280F381E02DCE01199578940E9430
S1132500630F6A8B7B8B8C8B9D8B0E94630F8A88F5
S11325109B88AC88BD88AB01BC01481959096A097C
S11325207B098A859B85A0E0B0E084179507A60700
S1132530B707E0F489898130C9F40F87188BEC81DF
S1132540FD81EF0DF11D80818E8782E0898BF894E7
S1132550E881F9810280F381E02DCE011995789408
S11325600E94630F6A8B7B8B8C8B9D8B0F87188BE0
S11325708989811116C010C089898150823058F42C
S113258083E0898BF894E881F9810280F381E02D5E
S1132590CE0119957894198A809184318F5F809344
S11325A08431DF91CF911F910F91FF90BF90AF9035
S11325B09F908F900895CF92DF92EF92FF920F93A6
S11325C01F93CF93DF937C01EA0169018CE091E2D0
S11325D0F70180839183C7010E960E942813F701A7
S11325E0C483D583C682D7820087002371F0E601B5
S11325F0015010E00F5F1F4F0C0D1D1D62E089910B
S11326000E94AD0FC017D107C9F7F70181850E9459
S1132610A30E84EF91E0F7018487958788EB9BE014
S113262082879387DF91CF911F910F91FF90EF9055
S1132630DF90CF9008950F9303E12BE931E344E554
S113264050E261E085E891E30E94DB120F91089566
S1132650FC01108213820895CF93DF93DC011C9652
S11326609C911C97913071F412968D919C911397C3
S1132670EC01E881F9810190F081E02D19966C91CB
S113268019951FC0933071F412968D919C911397F4
S1132690EC01E881F9810280F381E02D19966C91B7
S11326A019950FC0923069F412968D919C911397ED
S11326B0EC01E881F9810480F581E02D19966C9193
S11326C01995DF91CF910895FC0162837383089576
S11326D0CF92DF92EF92FF920F931F93CF93DF93EA
S11326E0EC018091AE31EF89F88DE80FF11D60E0C7
S11326F080810E944B10E091AF31F0E0E055FE4C38
S113270010828091AF31ED89FE89E80FF11D80813F
S11327100E947B10892BB1F43091AE31E091AF313E
S1132720F0E0E055FE4C208181E090E0A0E0B0E0D4
S113273004C0880F991FAA1FBB1F3A95D2F7822B9A
S1132740808319C03091AE31E091AF31F0E0E055B3
S1132750FE4C208181E090E0A0E0B0E004C0880F4E
S1132760991FAA1FBB1F3A95D2F780959095A09503
S1132770B09582238083E091AF31F0E0E055FE4CC8
S11327808081882309F478C08091AF310091AE3103
S11327909C8910E0989F000D111D11248A859B854A
S11327A00817190709F062C00E94630FCD84DE8404
S11327B0EF84F888AB01BC014C195D096E097F09EF
S11327C08F819885A0E0B0E084179507A607B70726
S11327D0E0F48C85811119C00A871B87E989FA897D
S11327E0E00FF11F8081898781E08C87F894E8816C
S11327F0F9810280F381E02DCE01199578940E942D
S1132800630F6D877E878F87988B0E94630FCD84BB
S1132810DE84EF84F888AB01BC014C195D096E09B4
S11328207F098D819E81A0E0B0E084179507A607FB
S1132830B707E0F48C858130C9F40A871B87E989DE
S1132840FA89E00FF11F8081898782E08C87F894F0
S1132850E881F9810280F381E02DCE011995789405
S11328600E94630F6D877E878F87988B0A871B87EB
S11328708C85811133C010C08C858150823058F40E
S113288083E08C87F894E881F9810280F381E02D5C
S1132890CE01199578941C868091AF318F5F809317
S11328A0AF318091AF319B898917C0F01092AF315D
S11328B08091AE31EF89F88DE80FF11D61E08081E0
S11328C00E944B108091AE318F5F8093AE31809126
S11328D0AE319C89891710F01092AE31DF91CF91FF
S11328E01F910F91FF90EF90DF90CF9008958F92FA
S11328F09F92AF92BF92CF92EF92FF920F931F934A
S1132900CF93DF93EC01F62E4A01590186E191E25F
S113291088839983CE0109960E942813FC82898AB0
S11329209A8AAD8ABE8A0F8B188FEB8ACC8AE11003
S113293005C08C89882339F1F12C0EC010E0ED8993
S1132940FE89E10FF11D62E080810E94AD0F1F5FDF
S11329508B891817A0F3EDCF0F2D10E0EF89F88DB8
S1132960E00FF11F61E080810E94AD0F8F89988D87
S1132970FC01E00FF11F61E080810E944B10F39491
S11329808C89F81648F38C810E94A30E84EF91E0A1
S11329908F83988788EB9BE08D839E83DF91CF9113
S11329A01F910F91FF90EF90CF90BF90AF909F90A9
S11329B08F900895CF92EF920F931F930F2EF3E011
S11329C0CF2EF02D0F2EF5E0EF2EF02D06E710E2BE
S11329D029E730E247E650E261E085EB91E30E94AB
S11329E077141F910F91EF90CF900895AF92BF92FB
S11329F0CF92DF92EF92FF920F931F93CF93DF93C7
S1132A007C01DC019496BC9094979596DC91959703
S1132A10ED91FC91A188CD2FC12CD12CD701ED9142
S1132A20FC911197208992960D911C919397422FB6
S1132A3050E0440F551F440F551F440F551F4C9D24
S1132A40C0014D9D900D5C9D900D1124080F191F20
S1132A504C2F60E0C7010E945C1ECF5F8C2F8D1B42
S1132A608B1528F4BFEFCB1ADB0ACA15B8F2DF9135
S1132A70CF911F910F91FF90EF90DF90CF90BF9077
S1132A80AF900895FC01A081B18150969C9144A11E
S1132A90949FA0011124440F551F440F551F440F48
S1132AA0551F60E070E082A193A10E940927089558
S1132AB0CF93DF93EC016DA3E8A1F9A10190F0811C
S1132AC0E02D1995E8A1F9A10280F381E02DCE0152
S1132AD01995DF91CF910895CF93DF93EC01FC0119
S1132AE0EB58FF4F8081882319F0CE010E944215D4
S1132AF060E0CE010E945815DF91CF9108951F9395
S1132B00CF93DF93EC010E94F6141DA18CA1180F42
S1132B10E881F9818189181728F0CE010E94B41E3A
S1132B2080E00EC0FE01EB58FF4F8081882319F02E
S1132B30CE010E944215612FCE010E94581581E0FA
S1132B40DF91CF911F9108950E94F6140895CF93B9
S1132B50DF93EC010E946C15CE010E947F15811158
S1132B60FBCF60E0CE010E945815DF91CF9108950C
S1132B7024E0FC0120838EEC91E30895CF92DF9250
S1132B80EF92FF920F931F93CF93DF931F92CDB7D2
S1132B90DEB77C016B0189019A014CED5DE162E3D2
S1132BA07FE10E949A1FCE0101960E94B81586010A
S1132BB02FEA3AE14981BC01C7010E94EC1B0F9046
S1132BC0DF91CF911F910F91FF90EF90DF90CF9005
S1132BD00895FC01E60FF11D849190E0982F882759
S1132BE03196E4918E0F911D089580E090E0089550
S1132BF00F931F93CF93DF93EC018B01FB0184911F
S1132C0088833196E491E983FB013296E491EA8367
S1132C10FB013396E491EB83FB013496E491EC835E
S1132C20FB013596E491ED83FB013696E491EE8346
S1132C30FB013796E491EF83FB013896E491E88732
S1132C40FB013996E491E987FB013A96E491EA871E
S1132C50FB013B96E491EB87FB013C96E491EC8706
S1132C60FB013D96E491ED87FB013E96E491EE87EE
S1132C70FB013F96E491EF87FB017096E491E88BAA
S1132C8061E1C8010E94E915898B9A8B63E1C8014F
S1132C900E94E9158B8B9C8B65E1C8010E94E915A4
S1132CA08D8B9E8BDF91CF911F910F910895DC0145
S1132CB01A969C911A97ED91FC911197249130E00A
S1132CC0092E02C0359527950A94E2F7892F860FBD
S1132CD0883010F4E22F0FC03196ED93FC931197D6
S1132CE0E491F0E038E0391B02C0EE0FFF1F3A9583
S1132CF0E2F7E22B88501A968C9381E090E002C0B0
S1132D00880F991F6A95E2F781508E2308950F93D7
S1132D101F93CF93DF938C01EC01C85BDF4F688373
S1132D2079831A86FC01E55AFF4F6081CE010E9427
S1132D3057168887F801E45AFF4F6081CE010E943C
S1132D4057168987F801EC58FF4F80818C8791E0F2
S1132D50811190E09D87DF91CF911F910F9108958C
S1132D60CF93C62F0E945716C15021E030E002C015
S1132D70220F331FCA95E2F7821BCF9108952130A9
S1132D8049F018F0223059F00FC0840F911D47FD0F
S1132D909A950895860F911D67FD9A950895841B51
S1132DA0910947FD93950895861B910967FD9395B5
S1132DB00895213049F018F0223059F00FC0860FE1
S1132DC0911D67FD9A950895841B910947FD93957C
S1132DD00895861B910967FD93950895840F911DAD
S1132DE047FD9A9508952F923F924F925F926F926A
S1132DF07F928F929F92AF92BF92CF92DF92EF9287
S1132E00FF920F931F93CF93DF934C01D62F342E51
S1132E10FC01E85BFF4F568017817F013C01E4E72A
S1132E206E0E711CF701C085C5192D2ECD1708F43F
S1132E302C2EF701C480D5800685412E202F412FEA
S1132E40652D828193810E94D9165C01202F412F28
S1132E50652DC6010E94BF16332061F0F701248559
S1132E60F3012083222D30E0AC01B501C4010E949E
S1132E70CC190EC0F701238521110AC02585F30161
S1132E802083222D30E0AC01B501C4010E94CC198D
S1132E90DC1720F0DC1B1F5F512CC4CFF401E85B6E
S1132EA0FF4FD50DD6834782DF91CF911F910F91AC
S1132EB0FF90EF90DF90CF90BF90AF909F908F9056
S1132EC07F906F905F904F903F902F9008956F92F6
S1132ED07F928F929F92AF92BF92CF92DF92EF92A6
S1132EE0FF920F931F93CF93DF93EC017C0188E44F
S1132EF0E80EF11CCE010E948716FE01EF5AFF4F27
S1132F0060803C966081C7010E94B016982EFE0135
S1132F10E25AFF4F6081C7010E94B016182FFE01CC
S1132F20E15AFF4F6081C7010E94B016782EF70165
S1132F30808418140CF0A4C00685160D1195202F5A
S1132F40412F692D828193810E94D9166C01F7016A
S1132F5082839383202F412F692D848195810E9440
S1132F60BF16F70184839583013089F028F002307D
S1132F70F9F0033099F143C09601280D311D87FC07
S1132F803A958C01060D111D67FC1A953AC041E073
S1132F9050E04619510967FC539596012F5F3F4F46
S1132FA08C01080D111D87FC1A95C40ED51E29C06D
S1132FB041E050E0BA016819710987FC73959601E4
S1132FC02F5F3F4F4619510967FC53958C010F5FE2
S1132FD01F4F840F951FC60ED71E13C09601260DD2
S1132FE0311D67FC3A9541E050E04819510987FCCE
S1132FF053958C010F5F1F4F840F951F02C08C01E6
S11330009601AC01B601CE010E948A1A8823C1F14F
S1133010FE01E85BFF4F168217824E01F9E58F0E21
S1133020911C5E018AE5A80EB11C6E01E8E4CE0E87
S1133030D11CF4016081C7010E945716082FF501C5
S11330406081C7010E945716182F40E0602FCE01FF
S11330500E94F31641E0612FCE010E94F31661E055
S1133060C7010E9457168111F0CFF601878186159A
S113307004F3FE01EC58FF4FC85BDF4F8C8580835F
S1133080872DDF91CF911F910F91FF90EF90DF90EB
S1133090CF90BF90AF909F908F907F906F90089546
S11330A0EF92FF920F931F93CF93DF93FC01EC5B9E
S11330B0FF4FC081D18167966F3F710511F008F011
S11330C035C06136710530F0B69680819181C80FA4
S11330D0D91F0AC06134710538F0FC01E859FF4F6B
S11330E080819181C80FD91FCE010196FC012491E2
S11330F0222309F45AC0FE01249130E062177307B9
S113310051F406C0FE01249130E06217730719F4EC
S1133110CE01029652C0FC018491C80FD11DCE018C
S11331200196FC0124912111EDCF42C08B01FC01D9
S1133130E459FF4F80819181C80FD91F7E0160E05F
S1133140C7010E94E915C80FD91F62E0C7010E9498
S1133150E915F4E0EF0EF11C8017910780F3FE01EE
S1133160849190E0982F88273196E4918E2B0097D4
S113317011F10817190739F403C00817190719F4CE
S1133180CE0103961AC0FE013296E491CE0FD11DF2
S1133190FE01849190E0982F88273196E4918E2B3C
S11331A0009759F780E090E008C080E090E005C007
S11331B080E090E002C080E090E0DF91CF911F9129
S11331C00F91FF90EF9008958D5A9F4FFC016083FB
S11331D00895CF92DF92EF92FF920F931F93CF93B4
S11331E0DF93EC017B018A016901FC01EA5AFF4F7C
S11331F08081813089F028F08230C9F0833011F168
S11332002BC0FE01EA5BFF4F0190F081E02DCE015F
S11332101995080F191F20C0FE01EA5BFF4F0190AA
S1133220F081E02DCE011995E81AF90A15C0FE01C6
S1133230EA5BFF4F0190F081E02DCE011995081B48
S1133240190B0AC0FE01EA5BFF4F0190F081E02DEB
S1133250CE011995E80EF91EFE01E65BFF4FE082F0
S1133260F182329600831183B601CE010E94501878
S1133270009741F0BC01CE010E946717082E000C94
S1133280990B02C080E090E0DF91CF911F910F91E4
S1133290FF90EF90DF90CF900895FC01EC5BFF4F1F
S11332A020813181232BE1F1B09620813C9620834B
S11332B03B9740813C96408332973081332381F1A0
S11332C0313079F439973081231714F43A963083E6
S11332D0FC01E959FF4F2081241714F53A96208305
S11332E00895FC01EF59FF4FE081DC01AD59BF4F58
S11332F05C91022E000C330B652F052E000C770B0E
S11333006E0F711DE7FD7A95261737071CF41D967D
S1133310E50FEC93541724F4FC01EF58FF4F50834E
S11333200895FC01E159FF4F21E020830E944D19CB
S113333008958A5B9F4F25EF35E1FC01208331839B
S11333400895CF93DF93FC01EC5BFF4F2081318123
S11333502617370751F0EC0160837183895A9F4F18
S11333600E94F815CE010E944D19DF91CF91089566
S11333708A5A9F4FFC01608308950F93DC019A964B
S1133380ED91FC919B974E1B5F0B5E96ED91FC912A
S11333905F9719950F910895EF92FF920F931F93E2
S11333A0CF93DF93DA01FC01E259FF4F508155239B
S11333B009F483C02115310509F47FC02230310599
S11333C070F0023029F46F5F7F4F621B730B0BC0E8
S11333D0033029F41196A21BB30BF1E037C0F02F90
S11333E0F17000FD33C0EC0148AD59ADA417B50729
S11333F008F463C04AAD5BADA417B50708F05DC01F
S11334004EA95FA9ECA9FDA9260F371F2617370778
S113341040F46417750720F49A012150310905C05E
S1133420BF016417750708F048C0E217F30708F0F6
S113343044C06E177F0708F4BF012417350708F44A
S1133440A9019A01261B370BF0E02DC0EC014CA911
S11334505DA96417750788F14EA95FA964177507FC
S113346060F54AAD5BAD08AD19AD2A0F3B1F2A17B5
S11334703B0740F4A417B50720F49A012150310901
S113348004C0D801A417B507C0F402171307A8F4A1
S1133490A017B10708F4D8012417350708F4A901C7
S11334A09A012A1B3B0BEC0148A159A1EA01EC80CB
S11334B0FD800F2FAD01F7011995DF91CF911F9179
S11334C00F91FF90EF900895633028F4FC01EC58BD
S11334D0FF4F60830895FC01EC58FF4F21E02083E7
S11334E008954617570748F48217930778F081E048
S11334F02417350770F080E008958217930740F48D
S113350081E02417350728F080E0089581E00895CC
S113351080E00895CF92DF92EF92FF920F931F9372
S1133520CF93DF93EC017B01690198016AAD7BAD18
S113353088AD99AD0E94711A882341F06EA97FA9C4
S11335409601A7018CA99DA90E94711ADF91CF91C0
S11335501F910F91FF90EF90DF90CF900895CF923D
S1133560DF92FF920F931F93CF93DF936C01D901E6
S1133570342F377081E090E0032E02C0880F991F2A
S11335800A94E2F7182FF601EC58FF4F20812230FD
S113359020F4213021F0282F04C020E002C0282F7D
S11335A010E0487FE6018AA19BA1E881F981F088B7
S11335B0F49EF001F59EF00D11246E0F7F1FFC01A7
S11335C0E60FF71F01110AC0AE0FBF1F8081822BC7
S11335D081278193EA17FB07C9F722C0A6014C583B
S11335E05F4F9081922B912790833F5F37701197A3
S11335F031110EC0E6018EA19FA1E80FF91FEA0167
S11336009881923040F4913041F011E021E006C0FD
S1133610220F110F03C011E001C021E0109709F738
S1133620DF91CF911F910F91FF90DF90CF9008957C
S1133630CF93DF93FC01A081B18184A190E09C0130
S1133640220F331F220F331F220F331F20A731A74E
S113365050962C91509730E0220F331F220F331FC6
S1133660220F331F26A337A375A1472F50E09A01D9
S1133670220F331F220F331F220F331F22A733A71A
S113368051966C915197480F591FC62FD0E0C4171B
S1133690D50718F4CE01871B910924A735A7880FF5
S11336A0991F880F991F880F991F820F931F86A750
S11336B097A754968D919C91559780AB91AB569654
S11336C08D919C91579782AB93ABDF91CF910895E5
S11336D00E94181B08950F931F93CF93DF93EC015F
S11336E0FC01EE5BFF4F008111812EAD3FAD32979F
S11336F0408151816CAD7DAD0E948A1A811104C054
S1133700C259DF4F18822FC081E0FE01E259FF4FFA
S113371080838CAD9DAD2CA93DA92817390710F4E1
S11337208CAB9DAB8EAD9FAD2EA93FA9821793079D
S113373010F48EAB9FABFE01E05CFF4F8081918162
S113374028AD39AD2817390710F488AF99AFFE01B9
S1133750EE5BFF4F808191812AAD3BAD82179307C9
S113376010F48AAF9BAFDF91CF911F910F91089511
S1133770FC0114AA15AA80A991A986AB97AB84A5CC
S113378095A580AF91AF86A597A582AF93AFCF01E2
S11337900E946B1B08950F930E94BD190F91089509
S11337A0DC01DC961D921C92DD97FC01E05CFF4F6E
S11337B0108211822FEF3FEFFC0126AF37AFEE5B93
S11337C0FF4F208331839096ED91FC919197028075
S11337D0F381E02D199508950F931F93CF93DF93F1
S11337E0EC01FC01EC5BFF4F108211822E8F3F8FA6
S11337F06AA37BA34CA31DA23F961082B0961082AD
S113380034971082359681E080833196808308A3B3
S113381019A3D801ED91FC91CE011995CE010E9416
S1133820D01BCE010E949919CA5ADF4F1882DF912A
S1133830CF911F910F910895662329F06A3031F0DA
S1133840862F90E008958FEF9FEF08958FEF9FEFFD
S11338500895662309F44BC06A3009F44BC0FC0197
S1133860208D21112BC06C3F20F025E0208F61704A
S11338701EC0683F28F024E0FC01208F637017C04D
S1133880603F28F023E0FC01208F677010C0603E89
S113389028F022E0FC01208F6F7009C0603C28F002
S11338A021E0FC01208F6F7102C070E028C070E03D
S11338B0FC01628B738B6EEF7FEF21C04FEF420FE1
S11338C0FC01408F2289338900243695279507947B
S11338D0369527950794322F202D6F73F901E62B27
S11338E0BF01FC01628B738B411107C008C06FEFED
S11338F07FEF05C06FEF7FEF02C06EEF7FEFCB016C
S11339000895FC01108E0895462FDC011896ED9160
S1133910FC91199720E030E060E2199508959A012E
S1133920DC011896ED91FC911997462F67E11995E2
S11339300895CF93DF931F92CDB7DEB76983AE01AD
S11339404F5F5F4F61E00E948F1C0F90DF91CF911A
S113395008959F92AF92BF92CF92DF92EF92FF921F
S11339600F931F93CF93DF93EC017901A881B98161
S1133970683109F467C030F4643109F44FC0673129
S1133980C9F182C0693109F46EC0603209F455C0CE
S11339907BC0F70101917F0118E0002334F4492D25
S11339A061E4CE010E94781F05C040E061E4CE01CD
S11339B00E94781F000F4A2D60E4CE010E94781FF8
S11339C0E881F98146816CE2CE010E94781F4B2D7B
S11339D060E4CE010E94781FE881F98147816CE29E
S11339E0CE010E94781F1150C1F6CE14DF0489F66F
S11339F081E04DC0442309F449C01C968C91817028
S1133A00B82E4150C42ED12CFFEFCF1ADF0AC20EBC
S1133A10D31E99249394A92CA81ABBCF11964C9128
S1133A2069E40E94781FE881F9814485417060E46B
S1133A30CE010E94781F81E02AC06AE40E94781FA8
S1133A4081E025C04C9169E40E94781FA881B98166
S1133A50EA85FB8520E030E012964C916CE2CE01C1
S1133A60199581E014C0EA85FB8520E030E01396C7
S1133A704C916CE21995E881F981418169E4CE01A8
S1133A800E94781F81E003C080E001C081E0DF91E3
S1133A90CF911F910F91FF90EF90DF90CF90BF9047
S1133AA0AF909F900895462FDC011696ED91FC91FE
S1133AB0179720E030E065E119950895462FDC0161
S1133AC01696ED91FC91179720E030E066E1199588
S1133AD008959A01DC011696ED91FC911797462FF3
S1133AE067E119950895DC011696ED91FC911797FD
S1133AF020E030E040E068E119950895DC01169675
S1133B00ED91FC91179720E030E040E069E11995D0
S1133B100895EF92FF920F931F93CF93DF931F9219
S1133B20CDB7DEB77C018B01D8016C916731C1F050
S1133B3018F4653130F438C06A31F8F06E3F51F151
S1133B4033C0F80141814983D7011696ED91FC9168
S1133B50179720E030E0C70119950E5F1F4FE4CF9F
S1133B60F80181818983AE014F5F5F4F61E0C70136
S1133B700E94691D0E5F1F4FD7CF0F5F1F4FD701E4
S1133B801696ED91FC91179720E030E040E0C701D4
S1133B901995CACFF8014181498369E2C7010E949E
S1133BA0781F0E5F1F4FC0CF0F90DF91CF911F91F1
S1133BB00F91FF90EF900895EF92FF920F931F9350
S1133BC0CF93DF938C01C62FD42F79016631A1F0F6
S1133BD028F46431E9F0653131F025C06731A9F08A
S1133BE06A3108F515C060E00E94841C6D2FC8017D
S1133BF00E94991C81E018C060E00E94841C6D2F13
S1133C00C8010E94991C81E00FC061E00E94841CDD
S1133C10D8011896ED91FC91199797014D2F6C2FAF
S1133C20C801199501C080E0DF91CF911F910F91D8
S1133C30FF90EF900895FC0160837183FB0122895A
S1133C40FC01248B0895CF93DF93EC01EA85FB8577
S1133C5020E030E040E068E21995EE81FF8120E049
S1133C6030E040E064E1CE01199541E06BE4CE011F
S1133C700E94781FE881F981448169E2CE010E94A3
S1133C80781F40E06BE4CE010E94781FE881F9813F
S1133C90448169E2CE010E94781F41E06BE4CE01C9
S1133CA00E94781FE881F981458169E2CE010E9472
S1133CB0781FDF91CF9108950F931F93CF93DF93D4
S1133CC0CDB7DEB72597CDBFDEBF6C834D832B8385
S1133CD009831A83DC011496ED91FC9115979E01DA
S1133CE02F5F3F4F41E06FE019952596CDBFDEBFB2
S1133CF0DF91CF911F910F910895DC011496ED91FE
S1133D00FC91159720E030E040E069E019950895B2
S1133D10DC011496ED91FC91159720E030E040E031
S1133D206AE019950895462FDC011496ED91FC91F3
S1133D30159720E030E06BE019950895462FDC01DB
S1133D401496ED91FC91159720E030E06DE0199503
S1133D500895462FDC011496ED91FC91159720E00F
S1133D6030E06EE019950895DC011496ED91FC9114
S1133D70159720E030E040E060E119950895DF9266
S1133D80EF92FF920F931F93CF93DF938C01C42F75
S1133D9079016E3009F44CC06F3021F06B3009F0BA
S1133DA058C038C00E94731DF701D380DD0CDD0CB0
S1133DB0DD0CF8018489D80E6D2D62956F706061F9
S1133DC0C8010E94531D6D2D6F70C8010E94531DC0
S1133DD0F7016481606BC8010E94531DF701D28111
S1133DE0DD0FDD0FDD0FE080F1808D2D90E08D0F74
S1133DF0911D8538910510F0D4E8DD19A7016D2FC8
S1133E00C8010E94691DC150C9F7C8010E947E1DE6
S1133E1081E020C0411106C060E771E20E94891D63
S1133E2081E018C069E671E20E94891D81E012C038
S1133E300E94731D61E8C8010E94531D6C2F669592
S1133E406695C8010E945E1DC8010E947E1D81E026
S1133E5001C080E0DF91CF911F910F91FF90EF900F
S1133E60DF9008950F931F93CF93DF938C01C62F98
S1133E70D42F0E94BF1E811135C0CA3059F0CD30F5
S1133E8099F0C93081F563E471E2C8010E941B1EF8
S1133E9081E029C0C8010E94231E62E271E2C801C8
S1133EA00E94891D81E01FC0D1110EC062E671E23B
S1133EB0C8010E94891DD801ED91FC911197828956
S1133EC054968C9381E00FC06BE571E2C8010E94A7
S1133ED0891DD801ED91FC911197838954968C9397
S1133EE081E001C081E0DF91CF911F910F9108958E
S1133EF0DC011A96ED91FC911B9720E030E01995B6
S1133F00089580E00895FC011082118281E89FE108
S1133F108483958386839783808791878287938719
S1133F20158A108E14861586168617868FEF868B53
S1133F30828F0895AF92BF92CF92DF92EF92FF9259
S1133F400F931F93CF93DF93EC015B016A01790117
S1133F500E94831FAC82BD82CE82DF82E886F9860E
S1133F600A871B87CE010E947D1EDF91CF911F918E
S1133F700F91FF90EF90DF90CF90BF90AF90089596
S1133F80CF93DF93CDB7DEB7AF97CDBFDEBF9FE250
S1133F90EEE7F0E2DE01119601900D929A95E1F7B9
S1133FA09981891769F0FE0132969E01205D3F4F89
S1133FB09191981739F0E217F307D1F780E003C025
S1133FC081E001C081E0AF96CDBFDEBFDF91CF912C
S1133FD00895CF93DF93CDB7DEB7A797CDBFDEBFEC
S1133FE097E2EDEAF0E2DE01119601900D929A95C6
S1133FF0E1F79981891769F0FE0132969E01285DE7
S11340003F4F9191981739F0E217F307D1F780E009
S113401003C081E001C081E0A796CDBFDEBFDF9180
S1134020CF91089590E0813C910591F0EAE9F4E2A2
S113403021E030E0408151814817590761F02F5F3A
S11340403F4F3C962B353105A9F78FEF9FEF08952D
S113405080E090E00895822F932F0895CF93DF930B
S1134060AC01FC0101900020E9F731978E179F07FE
S113407010F0FA010EC0EC01DC019D91229129930C
S11340809083AE17BF07C8F3F4CFA90101C0A901FB
S1134090F9019F012F5F3F4F9081992309F1ACF7FC
S11340A0892F807C803CA1F7B901641B750B6230B9
S11340B071056CF3643071055CF06430710539F797
S11340C0EA018991BE01EA0198838083AB0101C0B2
S11340D0F901DA018C9192919C938083A901D8CF44
S11340E0DF91CF9108959F92AF92BF92CF92DF92CA
S11340F0EF92FF920F931F93CF93DF937C018B0179
S11341006EEE78E20E94500E6894DD24D5F80F2EEE
S1134110FDE89F2EF02D0F2EF4EEAF2EF02D0F2E76
S1134120F0E9BF2EF02DCC24C394F801C081CC2338
S113413009F4D6C0DCF498012E5F3F4F9181905E64
S113414080E28C0F9F3C41F48A3D09F4AEC08A3F63
S113415009F0ADC0CB2DB0C0963A61F48A3D09F4A4
S1134160A8C08A3F09F4A7C0CA2DA6C00F5F1F4F7D
S11341708C2F02C0C92F8901CC3A39F4883F21F031
S1134180803219F4CCE201C0CCE2F801D081DD2305
S1134190C4F49181905E80E28D0F9F3C41F48A3D8E
S11341A009F48CC08A3F09F08BC0DB2D16C0963A07
S11341B051F48A3D09F486C08A3F09F485C0DA2D9A
S11341C00CC08D2F01C0D92FDC3A39F4883F21F07F
S11341D0803219F4DCE201C0DCE28D2D0E94C01FA4
S11341E08823C9F08D2F0E94E91FD82F8C2F0E949D
S11341F01220DC252D2F30E02130310519F11CF47B
S1134200232B79F092CF2230310569F12330310527
S113421009F08BCF39C08D2F0E94E91F811156C040
S113422059C0FC01EE0FFF1FE80FF91FEE0FFF1F2F
S1134230EE0FFF1FE257FB4D64817581C7010E9499
S1134240930E4CC0FC01EE0FFF1FE80FF91FEE0F99
S1134250FF1FEE0FFF1FE257FB4D66817781C701F9
S11342600E94930E3BC0FC01EE0FFF1FE80FF91FE5
S1134270EE0FFF1FEE0FFF1FE257FB4D62857385A4
S1134280C7010E94930E2AC0FC01EE0FFF1FE80F26
S1134290F91FEE0FFF1FEE0FFF1FE257FB4D608566
S11342A07185C7010E94930E19C0CB2D05C0C92F7B
S11342B003C0C92D01C0C92D890167CFDB2D8DCF66
S11342C0D92F8BCFD92D89CFD92D87CF8C2F0E9471
S11342D01220C9CF8C2F0E941220D6CFDC2E25CFDE
S11342E0F701808191810E942E20C701DF91CF9137
S11342F01F910F91FF90EF90DF90CF90BF90AF9000
S11343009F9008956A3251F018F4693271F03CC0FC
S11343106B3291F06C32C1F581E0089550E01416CF
S11343201506A4F580E090E01AC050E014161506B6
S11343307CF580E090E01CC0242F30E0A4E6B0E0DF
S11343400E94EB2428EF30E040E050E00E94C024BB
S1134350233200F5822F0197F1F781E0089525E3D8
S11343602A95F1F70000019684179507C1F714C048
S1134370EFE9FFE03197F1F700C0000001968417E0
S11343809507B1F781E0089580E0089581E00895EC
S113439081E0089581E0089581E00895CF93DF934B
S11343A0613461F128F4683261F06034E9F04EC0A0
S11343B06A34C1F16B3409F43FC0693409F046C072
S11343C027C0E0E6F6E080E8818383E1878B90E212
S11343D09183858B90E19183848B92E09183818B8F
S11343E091E09183808B39C0442321F080E880934D
S11343F0650633C080E8809366062FC0442321F00D
S113440080E28093650629C080E28093660625C019
S1134410442321F080E1809365061FC080E18093EE
S113442066061BC0442321F082E08093650615C014
S113443082E08093660611C0442321F081E08093DA
S113444065060BC081E08093660607C0EC010E94FC
S11344508221811102C081E0898F81E0DF91CF91B7
S11344600895CF92DF92EF92FF920F931F93CF9311
S1134470DF936C01EA012097A1F0062F172FE12C9E
S1134480F12CD8016D918D01D601ED91FC91019033
S1134490F081E02DC6011995E80EF91E219789F7E0
S11344A002C0E12CF12CC701DF91CF911F910F9134
S11344B0FF90EF90DF90CF900895CF93DF93EC01BE
S11344C0E881F9810190F081E02D1995882311F09C
S11344D01C8202C081E08C836C818A810E944B1013
S11344E0DF91CF910895FC018381811102C0148270
S11344F002C081E08483648182810E944B1008950C
S1134500FC018381811103C081E0848301C0148292
S1134510648182810E944B100895FC0182810E9473
S11345207B1021E0892B09F420E0822F08951F924B
S11345306F9382ED98E29F938F9380917A348F9357
S1134540809179348F930E94BB0D0F900F900F9040
S11345500F900F900F900895CF93C62F1F926F93D3
S113456080EE98E29F938F9380917A348F93809119
S113457079348F930E94BB0D0F900F900F900F9082
S11345800F900F90C23359F480917734909178341E
S1134590DC01ED91FC910480F581E02D1995CF911A
S11345A00895CF93C62F1F926F938FEE98E29F9337
S11345B08F9380917A348F93809179348F930E9472
S11345C0BB0D0F900F900F900F900F900F90C23370
S11345D059F48091773490917834DC01ED91FC9119
S11345E00280F381E02D1995CF9108950F931F93C5
S11345F0CF93DF93EC018C010C5F1F4FFC01E65855
S1134600FF4F0190F081E02DC80119958E3F2FEFE7
S11346109207E0F5FE01E258FF4F40815181329745
S1134620608171819C01C8010E94E9189C01FE010E
S1134630E65AFF4F9081913079F028F09230A9F03A
S11346409330E1F023C0C458DF4F88819981280F4B
S1134650391F288339831AC0C258DF4F8881998152
S1134660280F391F2883398311C0C458DF4F88812C
S11346709981821B930B8883998308C0C258DF4FAA
S113468088819981821B930B8883998381E090E0D0
S1134690DF91CF911F910F9108951F920F920FB642
S11346A00F92112408B60F9218BE09B60F9219BEC4
S11346B00BB60F921BBE2F933F934F935F936F9351
S11346C07F938F939F93AF93BF93EF93FF938091C7
S11346D07B3490917C34DC01ED91FC910480F58174
S11346E0E02D1995FF91EF91BF91AF919F918F911B
S11346F07F916F915F914F913F912F910F900BBEDE
S11347000F9009BE0F9008BE0F900FBE0F901F9020
S11347101895CF93DF9300D000D0CDB7DEB785EBEB
S113472091E380937B3490937C348EE599E280937B
S1134730793490937A3482E794E380937734909336
S1134740783480EF93E38093EE339093EF330E94B9
S1134750E20E0E941C0F80917B3490917C34DC012A
S1134760ED91FC910190F081E02D60E774E31995DF
S11347700091EE331091EF337801B4E0EB0EF11CAD
S1134780C7010E94881EC7010E94A71560E0C701E7
S11347900E94931E8AE790E0F80184AB95AB80E217
S11347A090E086AB97AB8091EE339091EF3361E06C
S11347B004960E949E1E8091EE339091EF3364E143
S11347C004960E94A91E8091EE339091EF3361E02C
S11347D004960E94E4188091EE339091EF33FC012B
S11347E0E658FF4F29E23CE12083318360E00496E0
S11347F00E94B8198091EE339091EF3304960E9491
S113480091198091EE339091EF3368E972E0049648
S11348100E94A1198091EE339091EF3362E00496E7
S11348200E94641A8091EE339091EF3304960E94B3
S113483042152091EE333091EF33F901EB58FF4FDD
S1134840008131978081800F002E000C110B90E1C4
S1134850981B0AF490E0892F992314F481E0890FBE
S11348608595E82E880FFF08F901E458FF4F108260
S113487011823296C80140968E199F0980839183D4
S113488061E079E2C9010E94A50D8091EE33909117
S1134890EF33FC01E458FF4F2AE030E020833183FA
S11348A03296C80180968E199F09808391836EE0A9
S11348B079E2CE0101960E947320BE016F5F7F4FA3
S11348C08091EE339091EF330E94960DCE010196C4
S11348D00E94DD0D8091EE339091EF3304960E9497
S11348E0A415FFCFCF93DF93C2E7D4E38FE299E21D
S11348F0888399838DE18A831B8261E00E94AD0FD6
S11349008B81811104C081E08093763402C01092BF
S11349107634E2E7F4E3648182810E944B1083E5FC
S113492099E28093703490937134C0EFD3E31A8288
S11349301B828BE399E2888399838CE19CE18093C9
S11349406A3490936B3410926C3410926D341092DC
S11349506E3410926F3484EF93E30E94811C87E4D9
S113496099E2888399832EEC31E249EA5CE16CE1B7
S113497071E284EF93E30E94BE15DF91CF91089515
S1134980A1E21A2EAA1BBB1BFD010DC0AA1FBB1F4F
S1134990EE1FFF1FA217B307E407F50720F0A21BC1
S11349A0B30BE40BF50B661F771F881F991F1A942E
S11349B069F760957095809590959B01AC01BD0158
S11349C0CF010895EE0FFF1F881F8BBF0790F6914C
S11349D0E02D1BBE1994A29FB001B39FC001A39FF9
S11349E0700D811D1124911DB29F700D811D112424
S11349F0911D08950F931F93CF93DF9382309105F8
S1134A0010F482E090E0E0917F34F091803420E073
S1134A1030E0A0E0B0E0309719F14081518102818B
S1134A20138148175907C8F08417950769F410973C
S1134A3031F012960C93129713961C9327C000938F
S1134A407F341093803422C02115310519F04217A8
S1134A50530718F49A01BD01EF01DF01F801DBCF20
S1134A6021153105F9F0281B390B2430310580F468
S1134A708A819B816115710521F0FB0182839383F7
S1134A8004C080937F3490938034FE01329644C0F6
S1134A90FE01E20FF31F8193919322503109288381
S1134AA039833AC020917D3430917E34232B41F4F4
S1134AB0209102203091032020937D3430937E3462
S1134AC020910020309101202115310541F42DB7AA
S1134AD03EB74091042050910520241B350BE091F2
S1134AE07D34F0917E34E217F307A0F42E1B3F0BC4
S1134AF02817390778F0AC014E5F5F4F241735074C
S1134B0048F04E0F5F1F40937D3450937E34819361
S1134B10919302C0E0E0F0E0CF01DF91CF911F91CB
S1134B200F910895CF93DF93009709F481C0FC019E
S1134B30329712821382A0917F34B09180341097FF
S1134B4081F420813181820F931F20917D34309133
S1134B507E342817390751F5E0937D34F0937E3481
S1134B6067C0ED0120E030E0CE17DF0740F44A8152
S1134B705B819E0141155105F1F0EA01F5CFC28335
S1134B80D38340815181840F951FC817D90759F4E5
S1134B9088819981840F951F0296808391838A81ED
S1134BA09B81828393832115310529F4E0937F341B
S1134BB0F09380343DC0E901EA83FB834991599124
S1134BC0C40FD51FEC17FD0761F480819181840F18
S1134BD0951F0296E90188839983828193818A8350
S1134BE09B83E0E0F0E012968D919C9113970097DF
S1134BF019F0FD01DC01F7CF8D919C9111979D0176
S1134C002E5F3F4F820F931F20917D3430917E346D
S1134C102817390769F4309729F410927F341092D9
S1134C20803402C012821382A0937D34B0937E3408
S1134C30DF91CF9108956F927F928F929F92AF925E
S1134C40BF92CF92DF92EF92FF920F931F93CF9375
S1134C50DF93009789F4CB01DF91CF911F910F91DE
S1134C60FF90EF90DF90CF90BF90AF909F908F9088
S1134C707F906F900C94FA24FC01E60FF71F9C01BF
S1134C8022503109E217F30708F4A9C0EC01D90155
S1134C900D911C91119706171707B0F005301105F7
S1134CA008F49BC0C80104978617970708F495C0B9
S1134CB002501109061B170B019311936D937C93FA
S1134CC0CF010E94922589C05B01A01AB10A4C0150
S1134CD0800E911EA0917F34B0918034612C712C90
S1134CE0E12CF12C109709F446C08D919C911197F9
S1134CF0A815B905B1F56C0142E0C40ED11CCA1463
S1134D00DB0478F14C018A189B08640142E0C40E6C
S1134D10D11C1296BC9012971396AC91B5E0CB16A9
S1134D20D10440F0B282A38380829182D9016D9331
S1134D307C9309C00E5F1F4F800F911FF901808380
S1134D409183EB2DFA2FE114F10431F0D70112967F
S1134D50ED93FC93139741C0E0937F34F093803438
S1134D603CC06816790608F43C017D0112960D904A
S1134D70BC91A02DB7CF80917D3490917E3488165C
S1134D809906E1F466167706C8F4809100209091A4
S1134D900120009741F48DB79EB7409104205091B3
S1134DA00520841B950BE817F907C8F4E0937D34BC
S1134DB0F0937E34F901608371830FC0CB010E94AC
S1134DC0FA247C01009759F0A801BE010E94002733
S1134DD0CE010E949225C70104C0CE0102C080E02A
S1134DE090E0DF91CF911F910F91FF90EF90DF90B2
S1134DF0CF90BF90AF909F908F907F906F900895C9
S1134E00FB01DC0102C001900D9241505040D8F7E3
S1134E100895DC0101C06D9341505040E0F70895BE
S1134E20FB01DC0101900D920020E1F708952F921F
S1134E303F924F925F926F927F928F929F92AF9226
S1134E40BF92CF92DF92EF92FF920F931F93CF9373
S1134E50DF93CDB7DEB72B97CDBFDEBF6C017B01EF
S1134E608A01FC0116821782838181FFCCC1CE01A5
S1134E7001963C01F6019381F70193FD859193FF1F
S1134E8081917F01882309F4BAC1853239F493FDF5
S1134E90859193FF81917F01853229F4B60190E0D9
S1134EA00E943129E7CF912C212C312CFFE1F315FD
S1134EB0D8F08B3279F038F4803279F08332A1F46F
S1134EC0232D20611DC08D3261F0803369F4232DC0
S1134ED0216016C0832D8260382EE32DE4603E2EBF
S1134EE02AC0F32DF8601DC037FC2DC020ED280F1B
S1134EF02A3040F08E32B9F436FC81C1232D20646F
S1134F00322E19C036FE06C08AE0989E200D112468
S1134F10922E11C0EAE02E9E200D1124222EF32D94
S1134F20F0623F2E08C08C3621F4832D8068382E21
S1134F3002C0883641F4F70193FD859193FF819176
S1134F407F018111B3CF982F9F7D9554933028F41E
S1134F500C5F1F4F9FE399830DC0833631F0833775
S1134F6071F0833509F059C021C0F801808189832B
S1134F700E5F1F4F88248394912C530113C0280182
S1134F80F2E04F0E511CF801A080B18036FE03C040
S1134F90692D70E002C06FEF7FEFC5010E942629E2
S1134FA04C018201F32DFF773F2E16C0280122E029
S1134FB0420E511CF801A080B18036FE03C0692D59
S1134FC070E002C06FEF7FEFC5010E941B294C0106
S1134FD0F32DF0683F2E820133FC1BC0822D90E03C
S1134FE088169906B0F4B60180E290E00E94312957
S1134FF02A94F4CFF50137FC859137FE81915F0146
S1135000B60190E00E94312921102A9421E0821AED
S113501091088114910471F7E8C0843611F089363F
S113502041F5F80137FE07C0608171818281938167
S11350300C5F1F4F08C060817181072E000C880B24
S1135040990B0E5F1F4FF32DFF763F2E97FF09C07C
S113505090958095709561957F4F8F4F9F4FF06825
S11350603F2E2AE030E0A3010E946D29882E861885
S113507045C0853731F4232D2F7EB22E2AE030E04F
S113508025C0932D997FB92E8F36C1F018F4883539
S113509079F0B5C0803719F0883721F0B0C0E92F16
S11350A0E061BE2EB4FE0DC0FB2DF460BF2E09C01E
S11350B034FE0AC0292F2660B22E06C028E030E054
S11350C005C020E130E002C020E132E0F801B7FE83
S11350D007C060817181828193810C5F1F4F06C07C
S11350E06081718180E090E00E5F1F4FA3010E94F8
S11350F06D29882E8618FB2DFF773F2E36FE0DC0B6
S1135100232D2E7FA22E891458F434FE0BC032FCBA
S113511009C0832D8E7EA82E05C0B82CA32C03C0F5
S1135120B82C01C0B92CA4FE0FC0FE01E80DF11D7E
S11351308081803321F49A2D997EA92E09C0A2FE84
S113514006C0B394B39404C08A2D867809F0B3944E
S1135150A3FC11C0A0FE06C0B21488F4280C922C43
S11351609B180EC0B21460F4B60180E290E00E9475
S11351703129B394F7CFB21418F42B1802C0982C29
S1135180212CA4FE10C0B60180E390E00E943129D6
S1135190A2FE17C0A1FC03C088E790E002C088E526
S11351A090E0B6010CC08A2D867859F0A1FE02C0A9
S11351B08BE201C080E2A7FC8DE2B60190E00E9480
S11351C03129891438F4B60180E390E00E94312932
S11351D09A94F7CF8A94F301E80DF11D8081B6010A
S11351E090E00E9431298110F5CF222009F442CEAB
S11351F0B60180E290E00E9431292A94F6CFF601AC
S11352008681978102C08FEF9FEF2B96CDBFDEBFC3
S1135210DF91CF911F910F91FF90EF90DF90CF908E
S1135220BF90AF909F908F907F906F905F904F90C2
S11352303F902F900895FC0105906150704001103B
S1135240D8F7809590958E0F9F1F0895FC016150AB
S1135250704001900110D8F7809590958E0F9F1F94
S113526008950F931F93CF93DF93FB01238121FDB7
S113527003C08FEF9FEF2CC022FF16C046815781D9
S1135280248135814217530744F4A081B1819D01E3
S11352902F5F3F4F208331838C93268137812F5F8B
S11352A03F4F2683378314C08B01EC01FB0100843C
S11352B0F185E02D1995892BE1F6D80116968D918B
S11352C09C911797019616968D939C931797CE01F0
S11352D0DF91CF911F910F910895FA01AA272830E9
S11352E051F1203181F1E8946F936E7F6E5F7F4FAF
S11352F08F4F9F4FAF4FB1E03ED0B4E03CD0670F2B
S1135300781F891F9A1FA11D680F791F8A1F911D7D
S1135310A11D6A0F711D811D911DA11D20D009F4CD
S113532068943F912AE0269F11243019305D31930F
S1135330DEF6CF010895462F4770405D4193B3E0F8
S11353400FD0C9F7F6CF462F4F70405D4A3318F09F
S1135350495D31FD4052419302D0A9F7EACFB4E050
S1135360A6959795879577956795BA95C9F7009708
S11353706105710508959B01AC010A2E06945795A9
S1135380479537952795BA95C9F7620F731F841F00
S10D5390951FA01D0895F894FFCFA7
S113539A0000813420000008400800094009000A7E
S11353AA00060006000600060006000600060006BF
S11353BA200620062006200640064006400640062F
S11353CA400640064006400660066006600660061F
S11353DA600660066006600680068006800680060F
S11353EAE007E0072A23793132333435363738393E
S11353FA723067414243442A237931323334353691
S113540A37383972306705060700010203042000A1
S113541AC7C2CFD0D1D2B8A8BF28292E212C3AF896
S113542A210A2D232B2227252A5F40245E262C2F8E
S113543A3B3C3E3D3F5B5D5C607B7D7E7C2000BFE8
S113544A28292E212C0A3AF8212D232B2227252A12
S113545A5F40245E262C2F3B3C3E3D3F5B5D5C60F7
S113546A7B7D7E7C0001020304050607000102031A
S113547A00010203040506070001020304050607E6
S113548A000102030001000000009310580D540D9E
S113549A570D9F10BC10AA10000000003012F8111A
S11354AA34120000000064132C136813681BB81B21
S11354BACB1B1815E215AE154015A115C015A61576
S11354CAA2152F15F8160015231581161F15AE15EA
S11354DAA519FF000196320101327800093D000046
S11354EA04285011040000840020001815A015C8CF
S11354FA19FF1815A115C019FF1815AE15A519FF1E
S113550A1815A415AF19FFD8A100EFBA8000D8A2C4
S113551A00EFBA8100EFBA8200D8A300EFBA830081
S113552AEFBA8400D8A400EFBA8500EFBA8600D88F
S113553AA500EFBA8700EFBA8800D8A600EFBA89A7
S113554A00EFBA8B00EFBA8C00EFBA8A00D8A70032
S113555AEFBA8D00EFBA8E00D8A800EFBA8F00EF29
S113556ABA9100EFBA9200EFBA9000D8A900EFBA44
S113557A9300EFBA9400D8AA00EFBA9500EFBA974D
S113558A00EFBA9800EFBA9600D8AB00EFBA9900C8
S113559AEFBA9B00EFBA9C00EFBA9A00D8AC00EFBE
S11355AABA9D00EFBA9F00EFBAA000EFBA9E00D8E6
S11355BAAD00EFBAA100EFBAA300EFBAA400EFBAA4
S11355CAA200D8AE00EFBAA500EFBAA700EFBAA8B6
S11355DA00EFBAA600D8AF00EFBAA900EFBAAA0042
S11355EAD8B000EFBAAB00EFBAAC00D8B100EFBA4A
S11355FAAD00EFBAAE00D8B200EFBAAF00EFBAB05E
S113560A00DA9800EFAE8A00EFAE8B00D8B300EF51
S113561ABAB100EFBAB300EFBAB400EFBAB200D825
S113562AB400EFBAB500EFBAB700EFBAB800EFBAF0
S113563AB600D8B500EFBAB900EFBABB00EFBABCEE
S113564A00EFBABA00D8B600EFBABD00EFBABF008D
S113565AEFBB8000EFBABE00D8B700EFBB8100EF02
S113566ABB8300EFBB8400EFBB8200D8B800EFBB5A
S113567A8500EFBB8700EFBB8800EFBB8600D8B973
S113568A00EFBB8900EFBB8B00EFBB8C00EFBB8A3A
S113569A00D8BA00EFBB8D00EFBB8F00EFBB9000C0
S11356AAEFBB8E00D98000D98100EFBB9100EFBB1C
S11356BA9300EFBB9400EFBB9200D98200EFBB9535
S11356CA00EFBB9700EFBB9800EFBB9600D98300AD
S11356DAEFBB9900EFBB9B00EFBB9C00EFBB9A00AA
S11356EAD98400EFBB9D00EFBB9F00EFBBA000EF86
S11356FABB9E00D98500EFBBA100EFBBA300EFBBA3
S113570AA400EFBBA200D98600EFBBA500EFBBA79C
S113571A00EFBBA800EFBBA600D98700EFBBA90026
S113572AEFBBAB00EFBBAC00EFBBAA00D98800EF1C
S113573ABBAD00EFBBAE00D98900EFBBAF00EFBB36
S113574AB000D98A00EFBBB100EFBBB300EFBBB422
S113575A00EFBBB200EFAFBC00EFAFBE00EFAFBFCC
S113576A00EFAFBD00DA8600EFADBA00EFADBC00C2
S113577AEFADBD00EFADBB00D9BE00EFAD9600EFB3
S113578AAD9800EFAD9900EFAD9700DAAF00EFAE38
S113579A9200EFAE9400EFAE9500EFAE9300DAA953
S11357AA00EFAE8E00EFAE9000EFAE9100EFAE8F39
S11357BA002000D88C00E2808C003A00D89B002E8E
S11357CA00D89F00DBB000DBB100DBB200DBB30022
S11357DADBB400DBB500DBB600DBB700DBB800DB0B
S11357EAB9002800290021002D0023002B002200E3
S11357FA270025002A005F00400024005E002600DE
S113580A2C002F003B003C003E003D003F005B00A3
S113581A5D005C0060007B007D007E007C00C100AE
S113582A77217A217A217A217A21C2007E21812163
S113583A812185218521C30089218C218C219021F4
S113584A9021C4009421972197219B219B21C50073
S113585A9F21A221A221A621A621C600AA21AD2107
S113586AB121B521B921C700BD21C021C021C4215C
S113587AC421C800C821CB21CF21D321D7212B028F
S113588ADB21DE21DE21E221E221CA00E621E9212F
S113589AED21F121F521CB00F921FC21002204227A
S11358AA0822CC000C220F22132217221B22CD001D
S11358BA1F22222226222A222E22CE0032223522F8
S11358CA39223D224122CF004522482248224C2235
S11358DA4C22D00050225322532257225722D1005D
S11358EA5B225E225E2262226222D2006622692240
S11358FA69226D226D22B8007122742274227822E0
S113590A7822D3007C227F22832287228B22D4000E
S113591A8F22922296229A229E22D500A222A52280
S113592AA922AD22B122D600B522B822BC22C022B5
S113593AC422D700C822CB22CF22D322D722D8000E
S113594ADB22DE22E222E622EA22D900EE22F12238
S113595AF522F922FD22DA000123042308230C2369
S113596A1023A00014231423142314231423A100A2
S113597A17231A231E2322232623A2002A232D2394
S113598A312335233923A3003D23402344234823C9
S113599A4C23A4005023532357235B235F23A500DE
S11359AA632366236A236E237223E400762379230E
S11359BA7D2381238523A70089238C239023942381
S11359CA9823A8009C239F239F23A323A323A900EE
S11359DAA723AA23AA23AE23AE23AA00B223B5235C
S11359EAB923BD23C123AC002829C523C923CD2348
S11359FAD1238D00D523D823DC23E023E423DE003E
S1135A0AE823EB23EF23F323F7239000FB23FE235E
S1135A1A022406240A24C9000E2411241524192454
S1135A2A1D242000212421242124212421242C0082
S1135A3A232423242324232423241400262426244D
S1135A4A2624262426243A002A242A242A242A24F8
S1135A5A2A24BB002C242C242C242C242C242E0071
S1135A6A2F242F242F242F242F24BF003124312420
S1135A7A3124312431243000342434243424342489
S1135A8A3424310037243724372437243724320086
S1135A9A3A243A243A243A243A2433003D243D242D
S1135AAA3D243D243D243400402440244024402401
S1135ABA4024350043244324432443244324360006
S1135ACA46244624462446244624370049244924A5
S1135ADA49244924492438004C244C244C244C2479
S1135AEA4C2439004F244F244F244F244F24290097
S1135AFA5224522452245224522428005424542432
S1135B0A5424542454242100562456245624562416
S1135B1A56240A00ED28ED28ED28ED28ED282D005D
S1135B2A5824582458245824582423005A245A24DC
S1135B3A5A245A245A242B005C245C245C245C24B2
S1135B4A5C2422005E245E245E245E245E242700F4
S1135B5A6024602460246024602425006224622472
S1135B6A6224622462242A0064246424642464244B
S1135B7A64245F006624662466246624662440003E
S1135B8A6824682468246824682424006A246A240B
S1135B9A6A246A246A245E006C246C246C246C24AF
S1135BAA6C2426006E246E246E246E246E242C002B
S1135BBA702470247024702470242F007224722498
S1135BCA7224722472243B0074247424742474246A
S1135BDA74243C00762476247624762476243E00A3
S1135BEA782478247824782478243D007A247A2422
S1135BFA7A247A247A243F007C247C247C247C24FE
S1135C0A7C245B007E247E247E247E247E245D0004
S1135C1A802480248024802480245C00822482249A
S1135C2A8224822482246000842484248424842474
S1135C3A84247B00862486248624862486247D0064
S1135C4A882488248824882488247E008A248A2410
S1135C5A8A248A248A247C008C248C248C248C24F0
S1135C6A8C24686F6C644B6579203A2025630A009A
S1135C7A72656C6561736564203A2025630A007055
S1135C8A726573736564204B6579203A2025630A2B
S1135C9A00456E676C697368207465737400D8AACA
S1135CAAD8B3D8AA20D981D8A7D8B1D8B3DB8C2045
S1135CBAD986D988DB8CD8B3DB8C00000000008D30
S1135CCA22732280225D2200000000F6223122542F
S1135CDA0D570D00000000F6223122540D570D0015
S10D5CEA000000D122AC2297220032
