S011000056344C6962546573742E73726563D2
S11300000C9434010C946A010C946A010C946A01F6
S11300100C946A010C946A010C946A010C946A01B0
S11300200C946A010C946A010C946A010C946A01A0
S11300300C946A010C946A010C9499020C946A0160
S11300400C946A010C946A010C946A010C946A0180
S11300500C94BC080C946A010C946A010C946A0117
S11300600C946A010C946A010C946A010C946A0160
S11300700C946A010C946A010C946A010C946A0150
S11300800C946A010C946A010C946A010C946A0140
S11300900C946A010C946A010C946A010C946A0130
S11300A00C946A010C946A010C946A010C946A0120
S11300B00C946A010C946A010C946A010C946A0110
S11300C00C946A010C946A010C946A010C946A0100
S11300D00C946A010C946A010C946A010C946A01F0
S11300E00C946A010C946A010C94A9040C946A019E
S11300F00C946A010C946A010C946A010C946A01D0
S11301000C946A010C946A010C946A010C946A01BF
S11301100C946A010C946A010C946A010C946A01AF
S11301200C946A010C946A010C946A010C946A019F
S11301300C946A010C946A010C946A010C946A018F
S11301400C946A010C946A010C946A010C946A017F
S11301500C946A010C946A010C946A010C946A016F
S11301600C9474040C946A010C946A010C946A0152
S11301700C946A010C946A010C946A010C946A014F
S11301800C946A010C946A010C946A010C946A013F
S11301900C946A010C946A010C946A010C946A012F
S11301A00C946A010C946A010C946A010C946A011F
S11301B00C946A010C946A010C946A010C946A010F
S11301C00C946A010C946A010C946A010C946A01FF
S11301D00C946A010C946A010C946A010C946A01EF
S11301E00C946A010C946A010C946A010C946A01DF
S11301F00C946A010C946A010C946A010C944806EC
S11302000C9423080C9459060C9470010C946C0102
S11302100C946F010C94C0030C945D050C94D703EB
S11302200C9446080C941C090C9453080C9439083B
S11302300C9497080C9491060C945D080C94610539
S11302400C9472080C9495060C949F010C94070866
S11302500C94DE040C94CC030C9425050C94E90353
S1130260DE04480607081C0911241FBECFEFCDBFCA
S1130270DFE3DEBF00E00CBF18BE19BE1ABE1BBE12
S113028011E2A0E0B0E2E2E0F8E100E00BBF02C05E
S113029007900D92A630B107D9F71BBE29E2A6E05C
S11302A0B1E201C01D92A738B207E1F711E0C4E33F
S11302B0D1E000E006C021970109802FFE010E94D1
S11302C04209C033D10780E00807A9F70E94F80863
S11302D00C94FF0B0C94000080E090E008950895C6
S11302E0CF92DF92EF92FF920F931F93CF93DF93FE
S11302F041155105C1F06A018C01E62EF72EC0E0CC
S1130300D0E0D7016D917D01D801ED91FC91019070
S1130310F081E02DC8011995892B39F02196CC166E
S1130320DD0679F702C0C0E0D0E0CE01DF91CF91C5
S11303301F910F91FF90EF90DF90CF900895FB01F4
S1130340A485B585ED91FC9111970190F081E02D84
S1130350682FCD01199580E090E00895CF93DF9345
S1130360CDB7DEB72E97CDBFDEBF8FE991E0898789
S11303709A871B861C8682E08C838C899D898D8755
S11303809E87AE01485E5F4F6E897F89CE010196DC
S11303900E944B092E96CDBFDEBFDF91CF91089509
S11303A09FB7F894E82FF0E0EE0FFF1FE050F04EF7
S11303B0A081B1811C928CE019968C93A081B181AB
S11303C081E08C93A081B18111961C92A081B181AE
S11303D013961C92A081B18114961C92A081B181C4
S11303E083E016968C93A081B18117961C92A0810C
S11303F0B1818C918D7F8C930190F081E02D80915F
S11304004C08848710A211A22FE13EE426A337A34F
S113041010A611A612A613A69FBF789408959FB79D
S1130420F894E0E5F0E0808184608083818182FF3C
S1130430FDCFE0E5F0E0808182608083A0E4B0E05D
S113044011968C911197807828ED24BF11968C9386
S11304508681887F8683E0E6F0E080818160808306
S1130460E0E5F0E0818181FFFDCFE0E4F0E0808110
S1130470887F816028ED24BF8083E0E5F0E08081FF
S1130480867E8083E0EBF0E08481807F84839FBF5D
S113049008952FB7F894E0E0F8E010828CE08187AB
S11304A081E0808311821382148283E08683178221
S11304B0A0E9B8E08C918E7F8C93A0E9B0E0199606
S11304C08C9119978E7F98ED94BF19968C93A0E820
S11304D0B8E01C9213968C911397887E13968C9394
S11304E0139712961C92129714968C911497149643
S11304F09C9114978470892B14968C93848584879B
S113050010A211A28FEF9CE786A397A310A611A6B1
S113051012A613A614A615A616A617A62FBF0895ED
S11305206091062170910721809108219091092101
S113053008951F920F920FB60F92112408B60F92CE
S113054018BE09B60F9219BE0BB60F921BBE2F939D
S11305508F939F93AF93BF93EF93FF932FB7F89429
S11305608091062190910721A0910821B091092141
S11305700196A11DB11D8093062190930721A0939C
S11305800821B0930921E0E0F8E0848584872FBF37
S1130590FF91EF91BF91AF919F918F912F910F9008
S11305A00BBE0F9009BE0F9008BE0F900FBE0F90A8
S11305B01F901895CF93DF93611125C090E0FC0143
S11305C0EE0FFF1FE65FFF4DA081B18111962C91C4
S11305D01197EC01C858DF4D388181E090E0032E7B
S11305E002C0880F991F0A94E2F78095822311961E
S11305F08C930190F081E02D7096E30FF11D8081C2
S11306008361808372C0623029F590E0FC01EE0FB3
S1130610FF1FE65FFF4DA081B18111962C911197C8
S1130620EC01C858DF4D388181E090E0032E02C010
S1130630880F991F0A94E2F78095822311968C9370
S11306400190F081E02D7096E30FF11D80818B61A4
S113065080834BC0613021F590E0FC01EE0FFF1F59
S1130660E65FFF4DA081B18111963C911197EC0199
S1130670C858DF4D288181E090E0022E02C0880F27
S1130680991F0A94E2F7832B11968C930190F081C1
S1130690E02D7096E20FF11D80818361808325C077
S11306A0633019F590E0FC01EE0FFF1FE65FFF4D8C
S11306B0A081B18111963C911197EC01C858DF4D8E
S11306C0288181E090E0022E02C0880F991F0A94CD
S11306D0E2F7832B11968C930190F081E02D7096B4
S11306E0E20FF11D80818B618083DF91CF910895AA
S11306F0611117C090E0FC01EE0FFF1FE65FFF4D94
S11307000190F081E02DDC01A858BF4D21E030E0DC
S1130710C9010C9002C0880F991F0A94E2F78683DE
S1130720089590E0FC01EE0FFF1FE65FFF4D01907E
S1130730F081E02DDC01A858BF4D21E030E0C90173
S11307400C9002C0880F991F0A94E2F785830895DC
S1130750282F30E0F901EE0FFF1FE65FFF4D0190F7
S1130760F081E02D808590E0F901E858FF4D00808C
S113077002C0959587950A94E2F7817099270895A8
S11307808F5E9B4FDC01ED91FC91818185FFFDCF54
S1130790608381E090E00895FC0125853685878596
S11307A09089A901481B590BCA0193700895FC0153
S11307B025853685878590892817390739F08785F7
S11307C09089E80FF91F818990E008958FEF9FEFDA
S11307D00895FC0125853685878590892817390772
S11307E079F0A785B089AE0FBF1F51968C912785EC
S11307F030892F5F3F4F33702787308B90E0089507
S11308008FEF9FEF0895CF93DF93DC01E0EAF0E0F0
S113081092819873966088ED84BF92831182FD0162
S1130820EF5EFB4F80819181803A994029F4E0E6A4
S1130830F6E088E085838183FD01EF5EFB4F8081D4
S11308409181803A9A4029F4E0E8F6E088E08583D3
S11308508183FD01EF5EFB4FC081D18183E08D83F5
S1130860C081D1819B81907C90639B83C081D18125
S11308708EE28E83C081D18188E98F830190F081DB
S1130880E02D9481907E986194831C961C927894B8
S1130890DF91CF910895F894FC01EF5EFB4F019036
S11308A0F081E02D21812C71E1F46081DC011D9641
S11308B02D913C911E972F5F3F4F33701F964D91A2
S11308C05C9150972417350769F01D96ED91FC91C2
S11308D01E97E80FF91F618B1D962D933C931E976D
S11308E001C08081789408951F920F920FB60F92E1
S11308F0112408B60F9218BE09B60F9219BE0BB692
S11309000F921BBE2F933F934F935F936F937F93ED
S11309108F939F93AF93BF93EF93FF938DE195E2F2
S11309200E944B04FF91EF91BF91AF919F918F91E2
S11309307F916F915F914F913F912F910F900BBEDB
S11309400F9009BE0F9008BE0F900FBE0F901F901E
S113095018951F920F920FB60F92112408B60F929A
S113096018BE09B60F9219BE0BB60F921BBE2F9379
S11309703F934F935F936F937F938F939F93AF9323
S1130980BF93EF93FF938AE091E20E944B04FF919F
S1130990EF91BF91AF919F918F917F916F915F91F3
S11309A04F913F912F910F900BBE0F9009BE0F9066
S11309B008BE0F900FBE0F901F901895CF92DF9234
S11309C0EF92FF92CF93DF93EDE1F5E2128213826F
S11309D00F2EF8EECF2EF3E0DF2EE12CF12CF02DCC
S11309E0C482D582E682F782CEE9D0E2C083D18385
S11309F080EA99E080932E2990932F2926E040E005
S1130A0052EC61E070E0CF010E940304EAE0F1E2FD
S1130A1012821382C482D582E682F782C083D18394
S1130A2080EA9AE080931B2590931C2526E040E001
S1130A3052EC61E070E0CF010E940304DF91CF919A
S1130A40FF90EF90DF90CF900895CF93DF93DC0178
S1130A5051969C915197913071F412968D919C917D
S1130A601397EC01E881F9810190F081E02D1E9645
S1130A706C9119951FC0933071F412968D919C91CD
S1130A801397EC01E881F9810280F381E02D1E9631
S1130A906C9119950FC0923069F412968D919C91C6
S1130AA01397EC01E881F9810480F581E02D1E960D
S1130AB06C911995DF91CF910895FC016283738342
S1130AC008958F929F92AF92BF92FF920F931F93BC
S1130AD0CF93DF93EC0180913029EE81FF81E80F01
S1130AE0F11D80810E94A803892B09F072C0F09047
S1130AF030290F2D10E08F8598890817190709F000
S1130B0062C00E9490028A889B88AC88BD88AB0131
S1130B10BC01481959096A097B098C859D85A0E0A7
S1130B20B0E084179507A607B707E0F48989811117
S1130B3019C00F87188BEC81FD81EF0DF11D8081A9
S1130B408E8781E0898BF894E881F9810280F381B2
S1130B50E02DCE01199578940E9490026A8B7B8BCC
S1130B608C8B9D8B0E9490028A889B88AC88BD8860
S1130B70AB01BC01481959096A097B098A859B851F
S1130B80A0E0B0E084179507A607B707E0F48989C9
S1130B908130C9F40F87188BEC81FD81EF0DF11DB5
S1130BA080818E8782E0898BF894E881F9810280C4
S1130BB0F381E02DCE01199578940E9490026A8BFE
S1130BC07B8B8C8B9D8B0F87188B8989811116C029
S1130BD010C089898150823058F483E0898BF8945D
S1130BE0E881F9810280F381E02DCE011995789492
S1130BF0198A809130298F5F80933029DF91CF91BA
S1130C001F910F91FF90BF90AF909F908F90089588
S1130C10CF92DF92EF92FF920F931F93CF93DF93C4
S1130C207C01EA01690180EB90E2F7018083918302
S1130C30C7010E960E945506F701C483D583C68268
S1130C40D7820087002371F0E601015010E00F5FA6
S1130C501F4F0C0D1D1D62E089910E94DA02C0171E
S1130C60D107C9F7F70181850E94D00184EF91E093
S1130C70F7018487958788EB9BE082879387DF91D0
S1130C80CF911F910F91FF90EF90DF90CF90089537
S1130C900F9303E127E439E24EE450E261E081E39B
S1130CA099E20E9408060F910895FC0110821382B4
S1130CB00895CF93DF93DC011C969C911C9791308F
S1130CC071F412968D919C911397EC01E881F9814E
S1130CD00190F081E02D19966C9119951FC0933005
S1130CE071F412968D919C911397EC01E881F9812E
S1130CF00280F381E02D19966C9119950FC0923002
S1130D0069F412968D919C911397EC01E881F98115
S1130D100480F581E02D19966C911995DF91CF919E
S1130D200895FC01628373830895CF92DF92EF925A
S1130D30FF920F931F93CF93DF93EC0180915A2975
S1130D40EF89F88DE80FF11D60E080810E9478033F
S1130D50E0915B29F0E0E45AF64D108280915B2922
S1130D60ED89FE89E80FF11D80810E94A803892B7B
S1130D70B1F430915A29E0915B29F0E0E45AF64D40
S1130D80208181E090E0A0E0B0E004C0880F991FCA
S1130D90AA1FBB1F3A95D2F7822B808319C03091CA
S1130DA05A29E0915B29F0E0E45AF64D208181E074
S1130DB090E0A0E0B0E004C0880F991FAA1FBB1FF9
S1130DC03A95D2F780959095A095B095822380832B
S1130DD0E0915B29F0E0E45AF64D8081882309F420
S1130DE078C080915B2900915A299C8910E0989FD2
S1130DF0000D111D11248A859B850817190709F018
S1130E0062C00E949002CD84DE84EF84F888AB0136
S1130E10BC014C195D096E097F098F819885A0E09A
S1130E20B0E084179507A607B707E0F48C85811115
S1130E3019C00A871B87E989FA89E00FF11F8081AD
S1130E40898781E08C87F894E881F9810280F381B5
S1130E50E02DCE01199578940E9490026D877E87CB
S1130E608F87988B0E949002CD84DE84EF84F8886B
S1130E70AB01BC014C195D096E097F098D819E810E
S1130E80A0E0B0E084179507A607B707E0F48C85C7
S1130E908130C9F40A871B87E989FA89E00FF11FB9
S1130EA08081898782E08C87F894E881F9810280C7
S1130EB0F381E02DCE01199578940E9490026D87FC
S1130EC07E878F87988B0A871B878C85811133C017
S1130ED010C08C858150823058F483E08C87F8945C
S1130EE0E881F9810280F381E02DCE01199578948F
S1130EF01C8680915B298F5F80935B2980915B299D
S1130F009B898917C0F010925B2980915A29EF8937
S1130F10F88DE80FF11D61E080810E9478038091D3
S1130F205A298F5F80935A2980915A299C8989175D
S1130F3010F010925A29DF91CF911F910F91FF90D9
S1130F40EF90DF90CF9008958F929F92AF92BF92CF
S1130F50CF92EF92FF920F931F93CF93DF93EC0105
S1130F60F62E4A0159018AEB90E288839983CE01D7
S1130F7009960E945506FC82898A9A8AAD8ABE8A9D
S1130F800F8B188FEB8ACC8AE11005C08C898823DB
S1130F9039F1F12C0EC010E0ED89FE89E10FF11D4D
S1130FA062E080810E94DA021F5F8B891817A0F328
S1130FB0EDCF0F2D10E0EF89F88DE00FF11F61E008
S1130FC080810E94DA028F89988DFC01E00FF11F65
S1130FD061E080810E947803F3948C89F81648F3C9
S1130FE08C810E94D00184EF91E08F83988788EBF5
S1130FF09BE08D839E83DF91CF911F910F91FF9092
S1131000EF90CF90BF90AF909F908F900895CF9224
S1131010EF920F931F930F2EF3E0CF2EF02D0F2E90
S1131020F5E0EF2EF02D00E710E223E730E241E691
S113103050E261E081E699E20E94A4071F910F91BA
S1131040EF90CF900895CF93DF93EC01E881F9817D
S11310500190F081E02D1995882311F01C8202C0C3
S113106081E08C836C818A810E947803DF91CF9127
S11310700895FC018381811102C0148202C081E0C1
S11310808483648182810E9478030895FC018381B2
S1131090811103C081E0848301C014826481828150
S11310A00E9478030895FC0182810E94A80321E034
S11310B0892B09F420E0822F08951F926F9380EC0E
S11310C090E29F938F93809184298F9380918329B9
S11310D08F930E94AE010F900F900F900F900F907E
S11310E00F900895CF93C62F1F926F938EEC90E2CA
S11310F09F938F93809184298F93809183298F93D9
S11311000E94AE010F900F900F900F900F900F90D0
S1131110C23359F48091812990918229DC01ED91A7
S1131120FC910480F581E02D1995CF910895CF931A
S1131130C62F1F926F938DED90E29F938F938091B2
S113114084298F93809183298F930E94AE010F90FD
S11311500F900F900F900F900F90C23359F480911D
S1131160812990918229DC01ED91FC910280F38127
S1131170E02D1995CF9108951F920F920FB60F92FB
S1131180112408B60F9218BE09B60F9219BE0BB6F9
S11311900F921BBE2F933F934F935F936F937F9355
S11311A08F939F93AF93BF93EF93FF938091852980
S11311B090918629DC01ED91FC910480F581E02D6C
S11311C01995FF91EF91BF91AF919F918F917F916D
S11311D06F915F914F913F912F910F900BBE0F90A4
S11311E009BE0F9008BE0F900FBE0F901F90189568
S11311F081E699E280938529909386298AE091E299
S113120080938329909384298CE799E280938129A0
S1131210909382290E940F020E944902809185299D
S113122090918629DC01ED91FC910190F081E02DF3
S11312306AE779E21995FFCFCF93DF93CCE7D9E240
S113124083EF90E2888399838DE18A831B8261E036
S11312500E94DA028B81811104C081E0809380298D
S113126002C010928029ECE7F9E2648182810E9435
S113127078038FEF90E280937A2990937B29DF9112
S1131280CF910895EE0FFF1F881F8BBF0790F69133
S1131290E02D1BBE19942F923F924F925F926F9252
S11312A07F928F929F92AF92BF92CF92DF92EF92F2
S11312B0FF920F931F93CF93DF93CDB7DEB72B9796
S11312C0CDBFDEBF6C017B018A01FC01168217824F
S11312D0838181FFCCC1CE0101963C01F60193814B
S11312E0F70193FD859193FF81917F01882309F490
S11312F0BAC1853239F493FD859193FF81917F01C1
S1131300853229F4B60190E00E94650BE7CF912C59
S1131310212C312CFFE1F315D8F08B3279F038F41D
S1131320803279F08332A1F4232D20611DC08D32E7
S113133061F0803369F4232D216016C0832D82600F
S1131340382EE32DE4603E2E2AC0F32DF8601DC034
S113135037FC2DC020ED280F2A3040F08E32B9F42E
S113136036FC81C1232D2064322E19C036FE06C0FE
S11313708AE0989E200D1124922E11C0EAE02E9E40
S1131380200D1124222EF32DF0623F2E08C08C363E
S113139021F4832D8068382E02C0883641F4F70189
S11313A093FD859193FF81917F018111B3CF982F94
S11313B09F7D9554933028F40C5F1F4F9FE39983CE
S11313C00DC0833631F0833771F0833509F059C08D
S11313D021C0F801808189830E5F1F4F8824839484
S11313E0912C530113C02801F2E04F0E511CF80157
S11313F0A080B18036FE03C0692D70E002C06FEF9B
S11314007FEFC5010E945A0B4C018201F32DFF7737
S11314103F2E16C0280122E0420E511CF801A08084
S1131420B18036FE03C0692D70E002C06FEF7FEF1C
S1131430C5010E944F0B4C01F32DF0683F2E820131
S113144033FC1BC0822D90E088169906B0F4B601D7
S113145080E290E00E94650B2A94F4CFF50137FCFA
S1131460859137FE81915F01B60190E00E94650B82
S113147021102A9421E0821A91088114910471F7B1
S1131480E8C0843611F0893641F5F80137FE07C00B
S113149060817181828193810C5F1F4F08C06081DC
S11314A07181072E000C880B990B0E5F1F4FF32DD3
S11314B0FF763F2E97FF09C09095809570956195B2
S11314C07F4F8F4F9F4FF0683F2E2AE030E0A301FB
S11314D00E94A10B882E861845C0853731F4232D30
S11314E02F7EB22E2AE030E025C0932D997FB92EAD
S11314F08F36C1F018F4883579F0B5C0803719F00B
S1131500883721F0B0C0E92FE061BE2EB4FE0DC0D3
S1131510FB2DF460BF2E09C034FE0AC0292F2660BB
S1131520B22E06C028E030E005C020E130E002C061
S113153020E132E0F801B7FE07C060817181828149
S113154093810C5F1F4F06C06081718180E090E041
S11315500E5F1F4FA3010E94A10B882E8618FB2D3E
S1131560FF773F2E36FE0DC0232D2E7FA22E891429
S113157058F434FE0BC032FC09C0832D8E7EA82E95
S113158005C0B82CA32C03C0B82C01C0B92CA4FEF0
S11315900FC0FE01E80DF11D8081803321F49A2DE6
S11315A0997EA92E09C0A2FE06C0B394B39404C0C8
S11315B08A2D867809F0B394A3FC11C0A0FE06C05E
S11315C0B21488F4280C922C9B180EC0B21460F448
S11315D0B60180E290E00E94650BB394F7CFB21499
S11315E018F42B1802C0982C212CA4FE10C0B601AC
S11315F080E390E00E94650BA2FE17C0A1FC03C02B
S113160088E790E002C088E590E0B6010CC08A2D1E
S1131610867859F0A1FE02C08BE201C080E2A7FCEB
S11316208DE2B60190E00E94650B891438F4B6018E
S113163080E390E00E94650B9A94F7CF8A94F301BB
S1131640E80DF11D8081B60190E00E94650B8110C8
S1131650F5CF222009F442CEB60180E290E00E9448
S1131660650B2A94F6CFF6018681978102C08FEF2D
S11316709FEF2B96CDBFDEBFDF91CF911F910F91CE
S1131680FF90EF90DF90CF90BF90AF909F908F909E
S11316907F906F905F904F903F902F900895FC0142
S11316A00590615070400110D8F7809590958E0F89
S11316B09F1F0895FC016150704001900110D8F7FC
S11316C0809590958E0F9F1F08950F931F93CF932E
S11316D0DF93FB01238121FD03C08FEF9FEF2CC01B
S11316E022FF16C046815781248135814217530752
S11316F044F4A081B1819D012F5F3F4F208331834A
S11317008C93268137812F5F3F4F2683378314C004
S11317108B01EC01FB010084F185E02D1995892BE7
S1131720E1F6D80116968D919C911797019616961D
S11317308D939C931797CE01DF91CF911F910F91B9
S11317400895FA01AA27283051F1203181F1E89453
S11317506F936E7F6E5F7F4F8F4F9F4FAF4FB1E0A0
S11317603ED0B4E03CD0670F781F891F9A1FA11D9B
S1131770680F791F8A1F911DA11D6A0F711D811D9C
S1131780911DA11D20D009F468943F912AE0269F61
S113179011243019305D3193DEF6CF010895462FC0
S11317A04770405D4193B3E00FD0C9F7F6CF462FA1
S11317B04F70405D4A3318F0495D31FD405241930A
S11317C002D0A9F7EACFB4E0A695979587957795C7
S11317D06795BA95C9F700976105710508959B014E
S11317E0AC010A2E06945795479537952795BA95D7
S11317F0C9F7620F731F841F951FA01D0895F894E5
S1051800FFCF14
S11318020008400800094009000A00060006000614
S11318120006000600060006000620062006200632
S113182220064006400640064006400640064006A2
S11318324006600660066006600660066006600692
S113184260068006800680068006E007E0072A23F9
S1131852793132333435363738397230674142435D
S1131862442A237931323334353637383972306782
S1131872050607000102030400010203040506072A
S1131882000102030001020304050607000102032A
S11318920405060700010203000100000000C00362
S11318A270016C016F01CC03E903D703000000004F
S11318B25D0525056105000000009106590695069F
S11318C2686F6C644B6579203A2025630A0072655F
S11318D26C6561736564203A2025630A0070726541
S11318E273736564204B6579203A2025630A0000EE
S11318F20000005308390846082308000000009736
S10919020872085D0800F4
S9030000FC
