:100000000C945A010C9490010C9490010C94900162
:100010000C9490010C9490010C9490010C9490011C
:100020000C9490010C9490010C9490010C9490010C
:100030000C9490010C9490010C9439060C9490014E
:100040000C9490010C9490010C9490010C949001EC
:100050000C941C0C0C9490010C9490010C94900145
:100060000C9490010C9490010C9490010C949001CC
:100070000C9490010C9490010C9490010C949001BC
:100080000C9490010C9490010C9490010C949001AC
:100090000C9490010C9490010C9490010C9490019C
:1000A0000C9490010C9490010C9490010C9490018C
:1000B0000C9490010C9490010C9490010C9490017C
:1000C0000C9490010C9490010C9490010C9490016C
:1000D0000C9490010C9490010C9490010C9490015C
:1000E0000C9490010C9490010C9412080C949001C3
:1000F0000C9490010C9490010C9490010C9490013C
:100100000C9490010C9490010C9490010C9490012B
:100110000C9490010C9490010C9490010C9490011B
:100120000C9490010C9490010C9490010C9490010B
:100130000C9490010C9490010C9490010C949001FB
:100140000C9490010C9490010C9490010C949001EB
:100150000C9490010C9490010C9490010C949001DB
:100160000C94DD070C9490010C9490010C94900178
:100170000C9490010C9490010C9490010C949001BB
:100180000C9490010C9490010C9490010C949001AB
:100190000C9490010C9490010C9490010C9490019B
:1001A0000C9490010C9490010C9490010C9490018B
:1001B0000C9490010C9490010C9490010C9490017B
:1001C0000C9490010C9490010C9490010C9490016B
:1001D0000C9490010C9490010C9490010C9490015B
:1001E0000C9490010C9490010C9490010C9490014B
:1001F0000C9490010C9490010C9490010C94B20812
:100200000C9499090C94580B0C9402020C94EC0277
:100210000C9447080C94E6090C948B030C943A0454
:100220000C94E9010C94D4010C9496010C94920165
:100230000C9460070C94AA090C943F030C949E0242
:100240000C94050C0C947C0C0C94C80B0C9495012C
:100250000C94740B0C94B8020C94F6010C94760870
:100260000C941D030C946A020C94FB020C94E20B98
:100270000C9484020C94E2090C949E0B0C94F80BE1
:100280000C94FA030C946D050C94C5010C941C029B
:100290000C94D2020C94120C0C944B030C9450024C
:1002A0000C94DC010C9436020C94AE0847089909B2
:1002B000580B7C0C11241FBECFEFCDBFDFE3DEBF98
:1002C00000E00CBF18BE19BE1ABE1BBE11E2A0E0B2
:1002D000B0E2ECE9F3E200E00BBF02C007900D9240
:1002E000AA33B107D9F71BBE29E2AAE3B1E201C0E4
:1002F0001D92AB3AB207E1F711E0CAE5D1E000E0A8
:1003000006C021970109802FFE010E94000FC6350B
:10031000D10780E00807A9F70E94580C0C94CC1173
:100320000C94000080E090E008950895CF92DF9251
:10033000EF92FF920F931F93CF93DF9341155105D7
:10034000C1F06A018C01E62EF72EC0E0D0E0D701A3
:100350006D917D01D801ED91FC9104A4F5A5E02DEE
:10036000C8011995892B39F02196CC16DD0679F74D
:1003700002C0C0E0D0E0CE01DF91CF911F910F917C
:10038000FF90EF90DF90CF900895DB0114964D9190
:100390005C9115976D917C91DC01ED91FC9106A427
:1003A000F7A5E02D19950895DC01ED91FC9104A4C9
:1003B000F5A5E02D199508959A01462F50E060E0CB
:1003C00070E0DC01ED91FC910684F785E02D199534
:1003D00008959A01AB01770F660B770BDC01ED9165
:1003E000FC910484F585E02D199508959A01AB01DF
:1003F00060E070E0DC01ED91FC910684F785E02D72
:10040000199508950F931F93CF93DF93EC01E88123
:10041000F9810190F081E02D19958C01E881F98135
:1004200006A0F7A1E02DCE011995800F911FDF9155
:10043000CF911F910F9108950F931F93CF93DF9347
:10044000EC01E881F9810280F381E02D19958C019E
:10045000E881F98106A0F7A1E02DCE011995800F62
:10046000911FDF91CF911F910F9108950F931F93CB
:10047000CF93DF93EC01E881F9810480F581E02DD1
:1004800019958C01E881F98106A0F7A1E02DCE0134
:100490001995800F911FDF91CF911F910F910895B2
:1004A0000F931F93CF93DF93EC01E881F9810680CE
:1004B000F781E02D19958C01E881F98106A0F7A15B
:1004C000E02DCE011995800F911FDF91CF911F91E3
:1004D0000F9108950F931F93CF93DF93EC01E88161
:1004E000F9810084F185E02D19958C01E881F9816D
:1004F00006A0F7A1E02DCE011995800F911FDF9185
:10050000CF911F910F9108950F931F93CF93DF9376
:10051000EC01E881F9810284F385E02D19958C01C5
:10052000E881F98106A0F7A1E02DCE011995800F91
:10053000911FDF91CF911F910F9108950F931F93FA
:10054000CF93DF93EC01E881F9810484F585E02DF8
:1005500019958C01E881F98106A0F7A1E02DCE0163
:100560001995800F911FDF91CF911F910F910895E1
:100570000F931F93CF93DF93EC01E881F9810684F9
:10058000F785E02D19958C01E881F98106A0F7A186
:10059000E02DCE011995800F911FDF91CF911F9112
:1005A0000F9108950F931F93CF93DF93EC01E88190
:1005B000F9810088F189E02D19958C01E881F98194
:1005C00006A0F7A1E02DCE011995800F911FDF91B4
:1005D000CF911F910F910895FB01A485B585ED91F1
:1005E000FC91119704A4F5A5E02D682FCD01199574
:1005F00080E090E00895CF93DF93CDB7DEB72E97DC
:10060000CDBFDEBF8CEE92E089879A871B861C8661
:1006100082E08C838C899D898D879E87AE01485EA0
:100620005F4F6E897F89CE0101960E94180F2E962A
:10063000CDBFDEBFDF91CF910895CF93DF93CDB7CC
:10064000DEB72E97CDBFDEBF8CEE92E089879A870A
:100650001B861C8682E08C838C899D898D879E8772
:10066000AE01485E5F4F6E897F89CE0101960E9480
:10067000090F2E96CDBFDEBFDF91CF910895DC012B
:10068000ED91FC9106A4F7A5E02D42E050E068E76B
:1006900070E2199508956115710581F0FB010190D3
:1006A0000020E9F73197AF01461B570BDC01ED91B4
:1006B000FC9106A4F7A5E02D1995089580E090E03F
:1006C0000895EF92FF920F931F93CF93DF93FB0157
:1006D00064916623B1F07F018C01C0E0D0E0D801C5
:1006E000ED91FC9104A4F5A5E02DC8011995892B85
:1006F00051F02196F701EC0FFD1F64916111EFCFCE
:1007000002C0C0E0D0E0CE01DF91CF911F910F91E8
:10071000FF90EF9008950F931F93CF93DF93EC0119
:100720000E9461038C01E881F98106A0F7A1E02D08
:10073000CE011995800F911FDF91CF911F910F91DD
:1007400008958F929F92AF92BF92EF92FF920F9374
:100750001F93CF93DF93CDB7DEB7A197CDBFDEBF99
:100760007C01CB01BA0119A2223008F42AE08E01E3
:100770000F5D1F4F822E912CA12CB12CA50194014D
:100780000E94DE0EE62F622F732F842F952F0150CB
:100790001109EA3010F4E05D01C0E95CD801EC9386
:1007A000611571058105910549F70115110591F054
:1007B000F80101900020E9F73197AF01401B510B80
:1007C000D701ED91FC9106A4F7A5E02DB801C70172
:1007D000199502C080E090E0A196CDBFDEBFDF9109
:1007E000CF911F910F91FF90EF90BF90AF909F908E
:1007F0008F900895CF92DF92EF92FF920F931F9305
:10080000CF93DF93EC016A017B012115310541F49F
:10081000E881F98104A4F5A5E02D642F199521C084
:100820002A303105E1F47723B4F4E881F9810480BA
:10083000F581E02D6DE219958C0144275527BA0109
:100840004C195D096E097F092AE0CE010E94A103BF
:10085000800F911F06C02AE00E94A10302C00E94DF
:10086000A103DF91CF911F910F91FF90EF90DF9047
:10087000CF9008952115310549F4DC01ED91FC91EB
:1008800004A4F5A5E02D642F199508950E94A103F5
:1008900008954F925F926F927F928F929F92AF9244
:1008A000BF92CF92DF92EF92FF920F931F93CF935D
:1008B0008C012A013B01C22F9A01AB01C301B20195
:1008C0000E94D90E882359F0D801ED91FC91028045
:1008D000F381E02D6BE770E2C8011995EEC073015A
:1008E0006201E894F7F82FEF3FEF4FE75FE7C701AA
:1008F000B6010E94D90E811115C02FEF3FEF4FE7CF
:100900005FE7C701B6010E940F0D18165CF4D8010D
:10091000ED91FC910280F381E02D6FE770E2C80158
:100920001995CBC02FEF3FEF4FE75FE4C301B20152
:100930000E94670E18165CF4D801ED91FC910280BC
:10094000F381E02D63E870E2C8011995B6C02FEF7E
:100950003FEF4FE75FECC301B2010E940F0D882308
:100960005CF4D801ED91FC910280F381E02D63E805
:1009700070E2C8011995A1C020E030E0A901C301CF
:10098000B2010E940F0D88237CF4D801ED91FC91F7
:100990000480F581E02D6DE2C80119956C0177FAAC
:1009A000709477F8709402C0C12CD12CCC2309F438
:1009B0006CC0F12C60E070E080E09FE320E030E06C
:1009C00040E251E40E94140DF394CF11F7CF2BC0F5
:1009D00020E030E040E251E4C301B2010E946C0E1D
:1009E0002B013C010E94860D6B017C01D801ED9129
:1009F000FC910284F385E02D4AE050E0C80119958E
:100A0000A80EB91EB60180E090E00E94B50D9B01D2
:100A1000AC01C301B2010E94A20C2B013C01C150E8
:100A2000B9F6C5014AC09B01AC01C301B2010E94E5
:100A3000A30C2B013C010E94860D4B015C010E941E
:100A4000B50D9B01AC01C301B2010E94A20C2B01A8
:100A50003C01D801ED91FC910684F785E02D2AE058
:100A600030E0B501A401C80119955C01D801ED91F0
:100A7000FC910480F581E02D6EE2C80119958A0D84
:100A80009B1D5C01AC0CBD1CA3CF20E030E040E01E
:100A90005FE3C301B2010E94A30C0E94860DAB016B
:100AA000BC01D801ED91FC910684F785E02D2AE088
:100AB00030E0C80119958C0D9D1DCF911F910F91AC
:100AC000FF90EF90DF90CF90BF90AF909F908F906E
:100AD0007F906F905F904F9008950E944904089511
:100AE0009FB7F894E82FF0E0EE0FFF1FE050F04EB4
:100AF000A081B1811C928CE019968C93A081B18168
:100B000081E08C93A081B18111961C92A081B1816A
:100B100013961C92A081B18114961C92A081B18180
:100B200083E016968C93A081B18117961C92A081C8
:100B3000B1818C918D7F8C930190F081E02D80911B
:100B40004C08848710A211A22FE13EE426A337A30C
:100B500010A611A612A613A69FBF789408959FB75A
:100B6000F894E0E5F0E0808184608083818182FFF9
:100B7000FDCFE0E5F0E0808182608083A0E4B0E01A
:100B800011968C911197807828ED24BF11968C9343
:100B90008681887F8683E0E6F0E0808181608083C3
:100BA000E0E5F0E0818181FFFDCFE0E4F0E08081CD
:100BB000887F816028ED24BF8083E0E5F0E08081BC
:100BC000867E8083E0EBF0E08481807F84839FBF1A
:100BD00008952FB7F894E0E0F8E010828CE0818768
:100BE00081E0808311821382148283E086831782DE
:100BF000A0E9B8E08C918E7F8C93A0E9B0E01996C3
:100C00008C9119978E7F98ED94BF19968C93A0E8DC
:100C1000B8E01C9213968C911397887E13968C9350
:100C2000139712961C92129714968C9114971496FF
:100C30009C9114978470892B14968C938485848757
:100C400010A211A28FEF9CE786A397A310A611A66E
:100C500012A613A614A615A616A617A62FBF0895AA
:100C600060913A2170913B2180913C2190913D21EE
:100C700008951F920F920FB60F92112408B60F928B
:100C800018BE09B60F9219BE0BB60F921BBE2F935A
:100C90008F939F93AF93BF93EF93FF932FB7F894E6
:100CA00080913A2190913B21A0913C21B0913D212E
:100CB0000196A11DB11D80933A2190933B21A093F1
:100CC0003C21B0933D21E0E0F8E0848584872FBF8C
:100CD000FF91EF91BF91AF919F918F912F910F90C5
:100CE0000BBE0F9009BE0F9008BE0F900FBE0F9065
:100CF0001F901895CF93DF93611125C090E0FC0100
:100D0000EE0FFF1FE65FFF4DA081B18111962C9180
:100D10001197EC01C957DF4D388181E090E0032E37
:100D200002C0880F991F0A94E2F7809582231196DA
:100D30008C930190F081E02D7096E30FF11D80817E
:100D40008361808372C0623029F590E0FC01EE0F70
:100D5000FF1FE65FFF4DA081B18111962C91119785
:100D6000EC01C957DF4D388181E090E0032E02C0CD
:100D7000880F991F0A94E2F78095822311968C932D
:100D80000190F081E02D7096E30FF11D80818B6161
:100D900080834BC0613021F590E0FC01EE0FFF1F16
:100DA000E65FFF4DA081B18111963C911197EC0156
:100DB000C957DF4D288181E090E0022E02C0880FE4
:100DC000991F0A94E2F7832B11968C930190F0817E
:100DD000E02D7096E20FF11D80818361808325C034
:100DE000633019F590E0FC01EE0FFF1FE65FFF4D49
:100DF000A081B18111963C911197EC01C957DF4D4B
:100E0000288181E090E0022E02C0880F991F0A9489
:100E1000E2F7832B11968C930190F081E02D709670
:100E2000E20FF11D80818B618083DF91CF91089566
:100E3000611117C090E0FC01EE0FFF1FE65FFF4D50
:100E40000190F081E02DDC01A957BF4D21E030E099
:100E5000C9010C9002C0880F991F0A94E2F786839B
:100E6000089590E0FC01EE0FFF1FE65FFF4D01903B
:100E7000F081E02DDC01A957BF4D21E030E0C90130
:100E80000C9002C0880F991F0A94E2F78583089599
:100E9000282F30E0F901EE0FFF1FE65FFF4D0190B4
:100EA000F081E02D808590E0F901E957FF4D008049
:100EB00002C0959587950A94E2F781709927089565
:100EC000875F9B4FDC01ED91FC91818185FFFDCF18
:100ED000608381E090E00895CF93DF93DC01E0EA46
:100EE000F0E092819873966088ED84BF92831182BE
:100EF000FD01E75FFB4F80819181803A994029F4A1
:100F0000E0E6F6E088E085838183FD01E75FFB4F43
:100F100080819181803A9A4029F4E0E8F6E088E007
:100F200085838183FD01E75FFB4FC081D18183E031
:100F30008D83C081D1819B81907C90639B83C08194
:100F4000D1818EE28E83C081D18188E98F83019027
:100F5000F081E02D9481907E9861948314961C9288
:100F60007894DF91CF910895F894FC01E75FFB4FEF
:100F70000190F081E02D21812C71E1F46081DC0190
:100F800015962D913C9116972F5F3F4F3370179612
:100F90004D915C9118972417350769F01596ED91DE
:100FA000FC911697E80FF91F618715962D933C93D6
:100FB000169701C08081789408951F920F920FB602
:100FC0000F92112408B60F9218BE09B60F9219BEDF
:100FD0000BB60F921BBE2F933F934F935F936F936C
:100FE0007F938F939F93AF93BF93EF93FF9389E486
:100FF00095E20E94B407FF91EF91BF91AF919F914D
:101000008F917F916F915F914F913F912F910F90B1
:101010000BBE0F9009BE0F9008BE0F900FBE0F9031
:101020001F9018951F920F920FB60F92112408B6B9
:101030000F9218BE09B60F9219BE0BB60F921BBEC7
:101040002F933F934F935F936F937F938F939F93D0
:10105000AF93BF93EF93FF938EE391E20E94B407A7
:10106000FF91EF91BF91AF919F918F917F916F9180
:101070005F914F913F912F910F900BBE0F9009BE42
:101080000F9008BE0F900FBE0F901F901895CF9332
:10109000DF93E9E4F5E212821382CDEAD0E2C08365
:1010A000D18380EA99E0809352299093532926E0D6
:1010B00040E052EC61E070E0CF010E946C07EEE38B
:1010C000F1E212821382C083D18380EA9AE0809396
:1010D00047259093482526E040E052EC61E070E01F
:1010E000CF010E946C07DF91CF910895CF93DF93DA
:1010F000DC0151969C915197913071F412968D912B
:101100009C911397EC01E881F9810190F081E02D29
:101110001E966C9119951FC0933071F412968D91A3
:101120009C911397EC01E881F9810280F381E02D15
:101130001E966C9119950FC0923069F412968D919C
:101140009C911397EC01E881F9810480F581E02DF1
:101150001E966C911995DF91CF910895FC016283E1
:10116000738308958F929F92AF92BF92FF920F93D5
:101170001F93CF93DF93EC0180915429EE81FF817F
:10118000E80FF11D80810E944807892B09F072C089
:10119000F09054290F2D10E08F85988908171907B2
:1011A00009F062C00E9430068A889B88AC88BD889E
:1011B000AB01BC01481959096A097B098C859D85D9
:1011C000A0E0B0E084179507A607B707E0F4898987
:1011D000811119C00F87188BEC81FD81EF0DF11D76
:1011E00080818E8781E0898BF894E881F981028083
:1011F000F381E02DCE01199578940E9430066A8B18
:101200007B8B8C8B9D8B0E9430068A889B88AC8858
:10121000BD88AB01BC01481959096A097B098A8557
:101220009B85A0E0B0E084179507A607B707E0F418
:1012300089898130C9F40F87188BEC81FD81EF0D0E
:10124000F11D80818E8782E0898BF894E881F98195
:101250000280F381E02DCE01199578940E9430062A
:101260006A8B7B8B8C8B9D8B0F87188B8989811167
:1012700016C010C089898150823058F483E0898B70
:10128000F894E881F9810280F381E02DCE0119956F
:101290007894198A809154298F5F80935429DF9123
:1012A000CF911F910F91FF90BF90AF909F908F9023
:1012B0000895CF92DF92EF92FF920F931F93CF93F7
:1012C000DF937C01EA01690185EE90E2F7018083FA
:1012D0009183C7010E960E94A609F701C483D583A6
:1012E000C682D7820087002371F0E601015010E02A
:1012F0000F5F1F4F0C0D1D1D62E089910E947A0641
:10130000C017D107C9F7F70181850E94700584EFE6
:1013100091E0F7018487958788EB9BE0828793872C
:10132000DF91CF911F910F91FF90EF90DF90CF90C1
:1013300008950F9303E12BE639E24EE450E261E0B9
:1013400085E599E20E9459090F910895FC011082E8
:1013500013820895CF93DF93DC011C969C911C9718
:10136000913071F412968D919C911397EC01E88164
:10137000F9810190F081E02D19966C9119951FC0AB
:10138000933071F412968D919C911397EC01E88142
:10139000F9810280F381E02D19966C9119950FC0A7
:1013A000923069F412968D919C911397EC01E8812B
:1013B000F9810480F581E02D19966C911995DF91E2
:1013C000CF910895FC01628373830895CF92DF92D9
:1013D000EF92FF920F931F93CF93DF93EC018091D5
:1013E0007E29EF89F88DE80FF11D60E080810E9471
:1013F0001807E0917F29F0E0E058F64D10828091C7
:101400007F29ED89FE89E80FF11D80810E94480740
:10141000892BB1F430917E29E0917F29F0E0E058EA
:10142000F64D208181E090E0A0E0B0E004C0880F9C
:10143000991FAA1FBB1F3A95D2F7822B808319C030
:1014400030917E29E0917F29F0E0E058F64D20812F
:1014500081E090E0A0E0B0E004C0880F991FAA1FCF
:10146000BB1F3A95D2F780959095A095B0958223B1
:101470008083E0917F29F0E0E058F64D8081882359
:1014800009F478C080917F2900917E299C8910E021
:10149000989F000D111D11248A859B850817190737
:1014A00009F062C00E943006CD84DE84EF84F888A3
:1014B000AB01BC014C195D096E097F098F819885CC
:1014C000A0E0B0E084179507A607B707E0F48C8585
:1014D000811119C00A871B87E989FA89E00FF11F7A
:1014E0008081898781E08C87F894E881F981028086
:1014F000F381E02DCE01199578940E9430066D8716
:101500007E878F87988B0E943006CD84DE84EF849F
:10151000F888AB01BC014C195D096E097F098D810A
:101520009E81A0E0B0E084179507A607B707E0F416
:101530008C858130C9F40A871B87E989FA89E00F15
:10154000F11F8081898782E08C87F894E881F98196
:101550000280F381E02DCE01199578940E94300627
:101560006D877E878F87988B0A871B878C85811173
:1015700033C010C08C858150823058F483E08C8752
:10158000F894E881F9810280F381E02DCE0119956C
:1015900078941C8680917F298F5F80937F2980912A
:1015A0007F299B898917C0F010927F2980917E291D
:1015B000EF89F88DE80FF11D61E080810E94180726
:1015C00080917E298F5F80937E2980917E299C89DE
:1015D000891710F010927E29DF91CF911F910F9102
:1015E000FF90EF90DF90CF9008958F929F92AF92EF
:1015F000BF92CF92EF92FF920F931F93CF93DF93FF
:10160000EC01F62E4A0159018FEE90E2888399830E
:10161000CE0109960E94A609FC82898A9A8AAD8A1F
:10162000BE8A0F8B188FEB8ACC8AE11005C08C899B
:10163000882339F1F12C0EC010E0ED89FE89E10F0D
:10164000F11D62E080810E947A061F5F8B89181766
:10165000A0F3EDCF0F2D10E0EF89F88DE00FF11F13
:1016600061E080810E947A068F89988DFC01E00FED
:10167000F11F61E080810E941807F3948C89F816AD
:1016800048F38C810E94700584EF91E08F839887E6
:1016900088EB9BE08D839E83DF91CF911F910F910B
:1016A000FF90EF90CF90BF90AF909F908F90089554
:1016B000CF92EF920F931F930F2EF3E0CF2EF02DCA
:1016C0000F2EF5E0EF2EF02D00E710E223E730E2D9
:1016D00041E650E261E085E899E20E94F50A1F9137
:1016E0000F91EF90CF900895CF93C62FE091A72947
:1016F000F091A829A081B1811F926F9385EF90E2AC
:101700009F938F93FF93EF939896ED91FC91999708
:1017100019950F900F900F900F900F900F90C2336C
:1017200059F48091A5299091A629DC01ED91FC91B5
:101730000280F381E02D1995CF910895CF93C62FA4
:10174000E091A729F091A829A081B1811F926F9300
:1017500087E091E29F938F93FF93EF939896ED919B
:10176000FC91999719950F900F900F900F900F90F3
:101770000F90C23359F48091A5299091A629DC01DC
:10178000ED91FC910480F581E02D1995CF9108959C
:10179000E091A729F091A829A081B1811F926F93B0
:1017A00086E191E29F938F93FF93EF939896ED914B
:1017B000FC91999719950F900F900F900F900F90A3
:1017C0000F900895CF93DF93EC01E881F9810190A8
:1017D000F081E02D1995882311F01C8202C081E070
:1017E0008C836C818A810E941807DF91CF910895C4
:1017F000FC018381811102C0148202C081E08483D4
:10180000648182810E9418070895FC0183818111FF
:1018100003C081E0848301C01482648182810E94BC
:1018200018070895FC0182810E94480721E0892B56
:1018300009F420E0822F08951F920F920FB60F92A5
:10184000112408B60F9218BE09B60F9219BE0BB636
:101850000F921BBE2F933F934F935F936F937F9392
:101860008F939F93AF93BF93EF93FF938091A92999
:101870009091AA29DC01ED91FC910480F581E02D85
:101880001995FF91EF91BF91AF919F918F917F91AA
:101890006F915F914F913F912F910F900BBE0F90E1
:1018A00009BE0F9008BE0F900FBE0F901F901895A5
:1018B00085E899E28093A9299093AA298EE391E281
:1018C0008093A7299093A82980EA99E28093A5297B
:1018D0009093A6290E94AF050E94E9058091A9294D
:1018E0009091AA29DC01ED91FC910190F081E02D0D
:1018F0006EE979E21995FFCFCF93DF93C0EAD9E281
:1019000088E291E2888399838DE18A831B8261E07A
:101910000E947A068B81811104C081E08093A42902
:1019200002C01092A429E0EAF9E2648182810E9457
:10193000180784E391E280939E2990939F29DF9179
:10194000CF9108955058BB27AA270E94BA0C0C9437
:101950002D0E0E941F0E38F00E94260E20F039F442
:101960009F3F19F426F40C941C0E0EF4E095E7FB4F
:101970000C94160EE92F0E943E0E58F3BA17620718
:1019800073078407950720F079F4A6F50C94600E90
:101990000EF4E0950B2EBA2FA02D0B01B90190018A
:1019A0000C01CA01A0011124FF27591B99F0593FCE
:1019B00050F4503E68F11A16F040A22F232F342F16
:1019C0004427585FF3CF469537952795A795F04064
:1019D0005395C9F77EF41F16BA0B620B730B840B79
:1019E000BAF09150A1F0FF0FBB1F661F771F881F31
:1019F000C2F70EC0BA0F621F731F841F48F4879589
:101A000077956795B795F7959E3F08F0B0CF93957A
:101A1000880F08F09927EE0F9795879508950E94F3
:101A2000F20D08F481E008950E94280D0C942D0E0B
:101A30000E94260E58F00E941F0E40F029F45F3FCE
:101A400029F00C94160E51110C94610E0C941C0E7E
:101A50000E943E0E68F39923B1F3552391F3951B31
:101A6000550BBB27AA2762177307840738F09F5FBF
:101A70005F4F220F331F441FAA1FA9F335D00E2E2C
:101A80003AF0E0E832D091505040E695001CCAF799
:101A90002BD0FE2F29D0660F771F881FBB1F26175C
:101AA00037074807AB07B0E809F0BB0B802DBF0133
:101AB000FF2793585F4F3AF09E3F510578F00C9402
:101AC000160E0C94610E5F3FE4F3983ED4F38695B6
:101AD00077956795B795F7959F5FC9F7880F911D23
:101AE0009695879597F90895E1E0660F771F881F0F
:101AF000BB1F621773078407BA0720F0621B730BC2
:101B0000840BBA0BEE1F88F7E09508950E94460EED
:101B100088F09F5798F0B92F9927B751B0F0E1F0AE
:101B2000660F771F881F991F1AF0BA95C9F714C05E
:101B3000B13091F00E94600EB1E008950C94600EF7
:101B4000672F782F8827B85F39F0B93FCCF3869597
:101B500077956795B395D9F73EF4909580957095F4
:101B600061957F4F8F4F9F4F0895E89409C097FB71
:101B70003EF490958095709561957F4F8F4F9F4F64
:101B80009923A9F0F92F96E9BB279395F6958795A8
:101B900077956795B795F111F8CFFAF4BB0F11F46B
:101BA00060FF1BC06F5F7F4F8F4F9F4F16C0882312
:101BB00011F096E911C0772321F09EE8872F762F48
:101BC00005C0662371F096E8862F70E060E02AF089
:101BD0009A95660F771F881FDAF7880F9695879575
:101BE00097F90895990F0008550FAA0BE0E8FEEF4A
:101BF00016161706E807F907C0F012161306E407D1
:101C0000F50798F0621B730B840B950B39F40A26C9
:101C100061F0232B242B252B21F408950A2609F4A7
:101C2000A140A6958FEF811D811D089597F99F67AB
:101C300080E870E060E008959FEF80EC0895002454
:101C40000A941616170618060906089500240A9421
:101C500012161306140605060895092E0394000CA7
:101C600011F4882352F0BB0F40F4BF2B11F460FF36
:101C700004C06F5F7F4F8F4F9F4F089557FD90585F
:101C8000440F551F59F05F3F71F04795880F97FB40
:101C9000991F61F09F3F79F08795089512161306FA
:101CA0001406551FF2CF4695F1DF08C01616170629
:101CB0001806991FF1CF869571056105089408955E
:101CC000E894BB2766277727CB0197F908950E94F0
:101CD000F20D08F48FEF08950E947F0E0C942D0EE4
:101CE0000E941F0E38F00E94260E20F0952311F05E
:101CF0000C94160E0C941C0E11240C94610E0E9470
:101D00003E0E70F3959FC1F3950F50E0551F629FF3
:101D1000F001729FBB27F00DB11D639FAA27F00D44
:101D2000B11DAA1F649F6627B00DA11D661F829F6B
:101D30002227B00DA11D621F739FB00DA11D621F50
:101D4000839FA00D611D221F749F3327A00D611D6D
:101D5000231F849F600D211D822F762F6A2F11244F
:101D60009F5750409AF0F1F088234AF0EE0FFF1F82
:101D7000BB1F661F771F881F91505040A9F79E3FD9
:101D8000510580F00C94160E0C94610E5F3FE4F345
:101D9000983ED4F3869577956795B795F795E7952F
:101DA0009F5FC1F7FE2B880F911D9695879597F938
:101DB00008950E94F20D880B990B0895A1E21A2E46
:101DC000AA1BBB1BFD010DC0AA1FBB1FEE1FFF1FDF
:101DD000A217B307E407F50720F0A21BB30BE40B2F
:101DE000F50B661F771F881F991F1A9469F7609576
:101DF0007095809590959B01AC01BD01CF01089530
:101E0000EE0FFF1F881F8BBF0790F691E02D1BBEC2
:101E10001994CF93DF93EC018B8188608B83CE0183
:101E20000E94180F2B81277F2B83DF91CF9108957C
:101E30002F923F924F925F926F927F928F929F92DA
:101E4000AF92BF92CF92DF92EF92FF920F931F93C8
:101E5000CF93DF93CDB7DEB72B97CDBFDEBF6C013D
:101E60007B018A01FC0116821782838181FFCCC12C
:101E7000CE0101963C01F6019381F70193FD859116
:101E800093FF81917F01882309F4BAC1853239F427
:101E900093FD859193FF81917F01853229F4B601ED
:101EA00090E00E943211E7CF912C212C312CFFE1E0
:101EB000F315D8F08B3279F038F4803279F0833230
:101EC000A1F4232D20611DC08D3261F0803369F4AF
:101ED000232D216016C0832D8260382EE32DE4600F
:101EE0003E2E2AC0F32DF8601DC037FC2DC020ED1A
:101EF000280F2A3040F08E32B9F436FC81C1232DF0
:101F00002064322E19C036FE06C08AE0989E200D4D
:101F10001124922E11C0EAE02E9E200D1124222EB3
:101F2000F32DF0623F2E08C08C3621F4832D80689B
:101F3000382E02C0883641F4F70193FD859193FF56
:101F400081917F018111B3CF982F9F7D955493305C
:101F500028F40C5F1F4F9FE399830DC0833631F047
:101F6000833771F0833509F059C021C0F8018081B1
:101F700089830E5F1F4F88248394912C530113C0D3
:101F80002801F2E04F0E511CF801A080B18036FE0E
:101F900003C0692D70E002C06FEF7FEFC5010E94A2
:101FA00027114C018201F32DFF773F2E16C0280127
:101FB00022E0420E511CF801A080B18036FE03C021
:101FC000692D70E002C06FEF7FEFC5010E941C1108
:101FD0004C01F32DF0683F2E820133FC1BC0822D93
:101FE00090E088169906B0F4B60180E290E00E9475
:101FF00032112A94F4CFF50137FC859137FE819197
:102000005F01B60190E00E94321121102A9421E074
:10201000821A91088114910471F7E8C0843611F096
:10202000893641F5F80137FE07C0608171818281F0
:1020300093810C5F1F4F08C060817181072E000CD7
:10204000880B990B0E5F1F4FF32DFF763F2E97FFE6
:1020500009C090958095709561957F4F8F4F9F4FE8
:10206000F0683F2E2AE030E0A3010E946E11882E16
:10207000861845C0853731F4232D2F7EB22E2AE0F5
:1020800030E025C0932D997FB92E8F36C1F018F41A
:10209000883579F0B5C0803719F0883721F0B0C0A5
:1020A000E92FE061BE2EB4FE0DC0FB2DF460BF2E03
:1020B00009C034FE0AC0292F2660B22E06C028E0CF
:1020C00030E005C020E130E002C020E132E0F8015C
:1020D000B7FE07C060817181828193810C5F1F4FC1
:1020E00006C06081718180E090E00E5F1F4FA30108
:1020F0000E946E11882E8618FB2DFF773F2E36FE2C
:102100000DC0232D2E7FA22E891458F434FE0BC04F
:1021100032FC09C0832D8E7EA82E05C0B82CA32CBE
:1021200003C0B82C01C0B92CA4FE0FC0FE01E80DFD
:10213000F11D8081803321F49A2D997EA92E09C04A
:10214000A2FE06C0B394B39404C08A2D867809F029
:10215000B394A3FC11C0A0FE06C0B21488F4280CEE
:10216000922C9B180EC0B21460F4B60180E290E08D
:102170000E943211B394F7CFB21418F42B1802C096
:10218000982C212CA4FE10C0B60180E390E00E94A0
:102190003211A2FE17C0A1FC03C088E790E002C084
:1021A00088E590E0B6010CC08A2D867859F0A1FE32
:1021B00002C08BE201C080E2A7FC8DE2B60190E094
:1021C0000E943211891438F4B60180E390E00E9435
:1021D00032119A94F7CF8A94F301E80DF11D8081B2
:1021E000B60190E00E9432118110F5CF222009F44F
:1021F00042CEB60180E290E00E9432112A94F6CFDE
:10220000F6018681978102C08FEF9FEF2B96CDBF9D
:10221000DEBFDF91CF911F910F91FF90EF90DF9084
:10222000CF90BF90AF909F908F907F906F905F9076
:102230004F903F902F900895FC01059061507040A1
:102240000110D8F7809590958E0F9F1F0895FC017F
:102250006150704001900110D8F7809590958E0FD5
:102260009F1F08950F931F93CF93DF93FB0123814B
:1022700021FD03C08FEF9FEF2CC022FF16C04681C7
:102280005781248135814217530744F4A081B181DD
:102290009D012F5F3F4F208331838C9326813781AF
:1022A0002F5F3F4F2683378314C08B01EC01FB0166
:1022B0000084F185E02D1995892BE1F6D801169659
:1022C0008D919C911797019616968D939C931797D5
:1022D000CE01DF91CF911F910F910895FA01AA27A6
:1022E000283051F1203181F1E8946F936E7F6E5F59
:1022F0007F4F8F4F9F4FAF4FB1E03ED0B4E03CD007
:10230000670F781F891F9A1FA11D680F791F8A1FE9
:10231000911DA11D6A0F711D811D911DA11D20D050
:1023200009F468943F912AE0269F11243019305D0A
:102330003193DEF6CF010895462F4770405D4193FB
:10234000B3E00FD0C9F7F6CF462F4F70405D4A3348
:1023500018F0495D31FD4052419302D0A9F7EACF10
:10236000B4E0A6959795879577956795BA95C9F73F
:1023700000976105710508959B01AC010A2E069432
:102380005795479537952795BA95C9F7620F731FEB
:0C239000841F951FA01D0895F894FFCF36
:10239C000008400800094009000A00060006000673
:1023AC000006000600060006000620062006200691
:1023BC002006400640064006400640064006400601
:1023CC0040066006600660066006600660066006F1
:1023DC0060068006800680068006E007E0072A2358
:1023EC0079313233343536373839723067414243BC
:1023FC00442A2379313233343536373839723067E1
:10240C0005060700010203040D0A006E616E0069E7
:10241C006E66006F76660000010203040506070075
:10242C000102030001020304050607000102030474
:10243C0005060700010203000100000000C5014B66
:10244C0003D401DC01E901F601FA033A046D058BB2
:10245C000302021C02360250026A0284029E02B877
:10246C0002D2023F03FB021D036007960192019505
:10247C000100000000AE087608B20800000000E27F
:10248C0009AA09E60970726573736564204B657956
:10249C00203A2025630A0072656C656173656420BF
:1024AC003A2025630A00686F6C644B6579203A20EA
:1024BC0025630A0000000000120CF80B050CE20B5F
:0A24CC0000000000740B9E0BC80B0B
:00000001FF
